:100000000C9423030C944B030C944B030C944B0360
:100010000C944B030C944B030C944B030C944B0328
:100020000C944B030C944B030C944B030C944B0318
:100030000C944B030C944B030C944B030C944B0308
:100040000C94C20E0C944B030C94320F0C940C0FB6
:100050000C944B030C944B030C944B030C944B03E8
:100060000C944B030C944B034E414E494E4954594A
:10007000494E46CDCCCC3D0AD7233C17B7D1387773
:10008000CC2B329595E6241FB14F0A000020410089
:1000900000C84200401C4620BCBE4CCA1B0E5AAED3
:1000A000C59D74554E4B4E4F574E20434F4D4D41BD
:1000B0004E4400434F4E464947004144442C31339F
:1000C0002C5649525455414C5F504F5745522C5570
:1000D000382C52572C5669727475616C20506F77AA
:1000E00065722C415443207669727475616C20707E
:1000F0006F7765722030206F7220312C504552533B
:100100004953543D31004144442C31322C42414347
:100110004B4C494748545F4252492C55382C525752
:100120002C4261636B6C696768742042726967680E
:10013000746E6573732C4154432070616E656C203E
:100140006261636B6C696768742062726967687466
:100150006E6573732066726F6D203020746F20326D
:1001600035352C504552534953543D310041444498
:100170002C31312C444953504C41595F4252492C47
:1001800055382C52572C446973706C617973204236
:1001900072696768746E6573732C53717561776BE0
:1001A00020646967697473206272696768746E6538
:1001B00073732066726F6D203020746F2031352C80
:1001C000504552534953543D3100494E5055542CDB
:1001D000302C434F4E4649475552455F50414E459E
:1001E0004C5F5354415455532C53595354454D2C43
:1001F000535041445F5649525455414C5F504F57FC
:1002000045522C55495F545950453D332C43555365
:10021000544F4D5F545950453D504F57455200493A
:100220004E5055542C323030332C495F4144465F98
:100230004652455155454E43595F505553482C50F1
:10024000555348425554544F4E2C535041445F50DF
:10025000555348425554544F4E2C55495F545950AC
:10026000453D322C4F524445523D372C55492E5274
:100270004F573D312C48494444454E3D312C524F57
:10028000555445544F3D455F4144465F46524551A4
:1002900055454E435900494E5055542C333030305B
:1002A0002C455F4144465F4652455155454E4359A2
:1002B0002C454E434F4445522C535041445F444FCC
:1002C00055424C455F454E434F4445522C4F524496
:1002D00045523D362C55492E524F573D3100494E1F
:1002E0005055542C323030312C495F4144465F54D4
:1002F0004F4E452C5357495443482C2C4F5244459C
:10030000523D352C55492E524F573D3100494E50E4
:1003100055542C323030322C495F4144465F4D4FAA
:1003200044452C5357495443482C2C4F5244455272
:100330003D342C55492E524F573D31004F555450A6
:1003400055542C313030312C445F4144465F535476
:10035000414E4442592C444953504C41592C53501E
:1003600041445F444953504C41592C4C454E4754ED
:10037000483D362C524F573D312C57494454483D47
:100380003133302C4845494748543D34302C464F92
:10039000524547524F554E443D23464646464646F3
:1003A0002C4F524445523D332C55492E524F573D08
:1003B0003000494E5055542C323030302C495F417A
:1003C00044465F5446522C50555348425554544F5E
:1003D0004E2C535041445F50555348425554544F4E
:1003E0004E2C55495F545950453D322C4E4F5F4C71
:1003F0004142454C3D312C4F524445523D322C55E3
:10040000492E524F573D30004F55545055542C31C2
:100410003030302C445F4144465F41435449564597
:100420002C444953504C41592C535041445F44494A
:1004300053504C41592C4C454E4754483D362C5254
:100440004F573D312C57494454483D3133302C48A7
:1004500045494748543D34302C464F524547524F4A
:10046000554E443D234646464646462C4F5244454B
:10047000523D312C55492E524F573D30004E4F5F63
:10048000444953504C41595F434C4541523D310022
:100490005650535550504F52543D310050414745EE
:1004A000535550504F52543D3000495347454E45E7
:1004B0005249433D31004F5054494F4E00504F4E2A
:1004C000470053544154455343414E005354415403
:1004D000455343414E005049443D4346543733371A
:1004E000414446005649443D314C32500041555438
:1004F000484F523D333630623831326566313064B0
:1005000033336535343537656537623431323834E5
:10051000353336660043465420373337204144464E
:100520002050414E454C007B306235376262353297
:100530002D626564632D346564392D396438392D35
:100540003139353062393130396230637D00535092
:10055000414400415454414348494E472043414C93
:100560004C4241434B53210000000000240027006F
:100570002A0000000000250028002B0000000000D9
:1005800023002600290004040404040404040202D5
:100590000202020203030303030301020408102002
:1005A000408001020408102001020408102000000D
:1005B0000008000201000003040700000000000022
:1005C00000007E306D79335B5F707F7B771F0D3D60
:1005D0004F47000000000000000000000000000085
:1005E000000000000000000000000000000080018A
:1005F00080007E306D79335B5F707F7B0000000090
:10060000000000771F0D3D4F4700370000000E002F
:100610000000670000000000000000000000000073
:10062000000800771F0D3D4F4700370000000E0007
:10063000151D670000000000000000000000000021
:100640000000640F2A1511241FBECFEFD8E0DEBFD3
:10065000CDBF26E0A8E9B1E001C01D92A530B207E8
:10066000E1F711E0A0E0B1E0E0E4F6E302C00590BC
:100670000D92A839B107D9F713E0C2E2D3E004C064
:100680002197FE010E941219C132D107C9F70E94B9
:1006900041100C94131B0C940000AC011092480301
:1006A0009091980580919705FA01BF01641B750B25
:1006B00020914803308130934803931304C0921370
:1006C00002C0109248033081311104C0921721F00A
:1006D000CB0108953817D1F33196E7CF0F931F93CD
:1006E000CF93DF9380918C05882309F446C0D0E036
:1006F000C0E0813029F482E080938C05CCE4D3E023
:1007000080918D05882341F1209721F4C0919105B6
:10071000D09192058E01CE010E944D03892B29F4C0
:100720002196F80180818111F5CFF801808188231D
:1007300009F1C8010E944D03F801E80FF91F8081FB
:10074000882311F010823196F0939205E093910581
:100750001093900500938F0580918F0590919005DF
:10076000892B59F081E080938D05DF91CF911F9106
:100770000F91089510E000E0EBCF80E0F6CF8330DA
:1007800081F028F4813099F08230A9F00895873003
:10079000A9F08830C9F08430B1F4809180008F7D59
:1007A00003C0809180008F7780938000089584B586
:1007B0008F7784BD089584B58F7DFBCF8091B00085
:1007C0008F778093B00008958091B0008F7DF9CF2E
:1007D000CF93DF93282F30E0F901E255FA4F84914F
:1007E000F901E656FA4FD491F901EA57FA4FC4914C
:1007F000CC23A1F081110E94BF03EC2FF0E0EE0F9B
:10080000FF1FE458FA4FA591B491EC91ED2381E0DC
:1008100090E009F480E0DF91CF91089580E090E0CE
:10082000FACF1F93CF93DF93282F30E0F901E255E1
:10083000FA4F8491F901E656FA4FD491F901EA573B
:10084000FA4FC491CC23A9F0162F81110E94BF0347
:10085000EC2FF0E0EE0FFF1FEE58FA4FA591B49188
:100860008FB7F894EC91111108C0D095DE23DC937A
:100870008FBFDF91CF911F910895DE2BF8CFCF93DB
:10088000DF9390E0FC01E656FA4F24918A579A4F85
:10089000FC0184918823D1F090E0880F991FFC011E
:1008A000E859FA4FA591B491FC01EE58FA4FC59161
:1008B000D491623071F49FB7F8943C91822F809567
:1008C00083238C93E8812E2B28839FBFDF91CF91C8
:1008D00008958FB7F894EC912E2B2C938FBFF6CF01
:1008E0001F93CF93DF93182FEB0161E00E943F0429
:1008F000209739F460E0812FDF91CF911F910C9404
:100900001104CF3FD10511F461E0F5CFE12FF0E004
:10091000E255FA4FE491E33031F140F4E130B1F0C7
:10092000E230E1F0C038D1057CF7E4CFE73029F1BF
:10093000E83059F1E430B1F7809180008062809313
:100940008000D0938B00C0938A0004C084B5806877
:1009500084BDC7BDDF91CF911F91089584B580629A
:1009600084BDC8BDF7CF80918000806880938000EF
:10097000D0938900C0938800EDCF8091B00080684B
:100980008093B000C093B300E5CF8091B000806247
:100990008093B000C093B400DDCF8E3008F08E504D
:1009A0008770806480937C0080917A00806480935B
:1009B0007A0080917A0086FDFCCF8091780090913A
:1009C000790008953FB7F8948091A6019091A7010E
:1009D000A091A801B091A90126B5A89B05C02F3F01
:1009E00019F00196A11DB11D3FBFBA2FA92F982F55
:1009F0008827BC01CD01620F711D811D911D42E050
:100A0000660F771F881F991F4A95D1F708958F9217
:100A10009F92AF92BF92CF92DF92EF92FF924B01E3
:100A20005C010E94E2046B017C010E94E2046C19EB
:100A30007D098E099F09683E734081059105A8F3E1
:100A400021E0821A9108A108B10888EEC80E83E05F
:100A5000D81EE11CF11C81149104A104B10429F7F2
:100A6000FF90EF90DF90CF90BF90AF909F908F90CE
:100A700008952FB7F8946091A2017091A30180911D
:100A8000A4019091A5012FBF0895DC01ED91FC9187
:100A90000190F081E02D0994EF92FF920F931F9344
:100AA000CF93DF93209143032223E9F08C016091DF
:100AB000970580919405909195050E944505E090D9
:100AC0009405F0909505E801FE016491662359F0C4
:100AD000D701ED91FC910190F081E02DC7010995BE
:100AE0002196892B89F7DF91CF911F910F91FF906C
:100AF000EF900895AF92BF92CF92DF92EF92FF9264
:100B00000F931F93CF93DF936C017B018B01040F35
:100B1000151FEB015E01AE18BF08C017D10759F0D1
:100B20006991D601ED91FC910190F081E02DC60113
:100B30000995892B79F7C501DF91CF911F910F910D
:100B4000FF90EF90DF90CF90BF90AF900895FC01A1
:100B5000538D448D252F30E0842F90E0821B930B22
:100B6000541710F0CF96089501970895FC01918DC8
:100B7000828D981761F0A28DAE0FBF2FB11D5D96CB
:100B80008C91928D9F5F9F73928F90E008958FEF6D
:100B90009FEF0895FC01918D828D981731F0828D21
:100BA000E80FF11D858D90E008958FEF9FEF089578
:100BB000FC01918D228D892F90E0805C9F4F821BDC
:100BC00091098F739927089586EA92E00E94D805CB
:100BD00021E0892B09F420E0822F089580E090E045
:100BE000892B29F00E94E40581110C9400000895DE
:100BF000FC01A48DA80FB92FB11DA35ABF4F2C9192
:100C0000848D90E001968F739927848FA689B78988
:100C10002C93A089B1898C91837080648C93938D7F
:100C2000848D981306C00288F389E02D80818F7D22
:100C300080830895EF92FF920F931F93CF93DF93DA
:100C4000EC0181E0888F9B8D8C8D98131AC0E88908
:100C5000F989808185FF15C09FB7F894EE89FF89D7
:100C60006083E889F98980818370806480839FBF75
:100C700081E090E0DF91CF911F910F91FF90EF9075
:100C80000895F62E0B8D10E00F5F1F4F0F73112785
:100C9000E02E8C8D8E110CC00FB607FCFACFE889C0
:100CA000F989808185FFF5CFCE010E94F805F1CF4B
:100CB000EB8DEC0FFD2FF11DE35AFF4FF0829FB734
:100CC000F8940B8FEA89FB8980818062CFCFCF9324
:100CD000DF93EC01888D8823B9F0AA89BB89E88964
:100CE000F9898C9185FD03C0808186FD0DC00FB60A
:100CF00007FCF7CF8C9185FFF2CF808185FFEDCF88
:100D0000CE010E94F805E9CFDF91CF9108950F93AE
:100D10001F93CF93DF93EC01062F142F62E0802FF7
:100D20000E943F0462E0812F0E943F04602F70E028
:100D3000FB01EA57FA4FE491F0E0EE0FFF1FE45891
:100D4000FA4FA591B491B983A88366567A4FFB01F7
:100D500064916C83812F90E0FC01EA57FA4FE49193
:100D6000F0E0EE0FFF1FE458FA4F259134913B83DA
:100D70002A8386569A4FFC0184918D831F821886A0
:100D800019861A86EBE3FFE13197F1F7EC91E62340
:100D900091E009F490E0D901EC918E2309F0926082
:100DA0009E83DF91CF911F910F9108954F925F9293
:100DB0006F927F928F929F92AF92BF92CF92DF926B
:100DC000EF92FF920F931F93CF93DF9300D0CDB795
:100DD000DEB78C0149832A83660F771FF801EA5A30
:100DE000FF4FE080F180EE0CFF1CF801CF01801B6B
:100DF000910B8E159F0514F41192F8CF8981F8019B
:100E0000E60FF71F81838A818083680184E5C80E1D
:100E1000D11C60E0F60180810E9411045801F2E5C6
:100E2000AF0EB11C480180E5880E911C1E141F04F2
:100E30000CF5E1E0EE1AF108F801EE0DFF1D6080FF
:100E4000F5015080F401408088E0782E662D661F01
:100E50006627661F842D0E941104660C61E0852DB3
:100E60000E94110460E0852D0E9411047A94711093
:100E7000EDCFDCCF61E0F60180810F900F90DF9124
:100E8000CF911F910F91FF90EF90DF90CF90BF9087
:100E9000AF909F908F907F906F905F904F900C9449
:100EA0001104FC01EA5AFF4F20813181121613060A
:100EB0004CF46031710530F4262F4AE070E060E0B8
:100EC0000C94D6060895FC01EA5AFF4F0190F08178
:100ED000E02D1E161F06ACF4403198F4E42FF0E02C
:100EE000EE53FA4FE4912111E068DC01A60FB71F21
:100EF0005096EC9341E0460F2E2F70E060E00C948A
:100F0000D6060895DC01AA5ABF4F2D913C911216C6
:100F1000130684F4E42F440FFF0BEE53FA4F249191
:100F2000FC01E60FF71F208B41E0460F70E060E008
:100F30000C94D60608958F929F92AF92BF92CF9253
:100F4000DF92EF92FF92CF936B017C0120E030E0C3
:100F5000A9010E941E1787FD0AC02AE93FE34CE160
:100F600056E4C701B6010E94CC18181664F540E299
:100F700064E070E082E092E00E94820740E263E079
:100F800070E082E092E00E94820740E262E070E05E
:100F900082E092E00E94820740E261E070E082E03D
:100FA00092E00E94820740E270E060E082E092E01E
:100FB000CF91FF90EF90DF90CF90BF90AF909F9038
:100FC0008F900C94820720E030E040E251E4C701AA
:100FD000B6010E9484170E9496186B017C018AE07A
:100FE000882E912CA12CB12CC701B601A50194012A
:100FF0000E94F318C62FCA01B901A50194010E94ED
:10100000F318B62E80E1C81687E2D806E104F10491
:101010000CF459C0C701B60120E137E240E050E0CE
:101020000E94F318422F20E064E070E082E092E03A
:101030000E946307C701B60128EE33E040E050E0AC
:101040000E94F318CA01B9012AE030E040E050E004
:101050000E94F318462F20E063E070E082E092E007
:101060000E946307C701B60124E630E040E050E08B
:101070000E94F318CA01B9012AE030E040E050E0D4
:101080000E94F318462F20E062E070E082E092E0D8
:101090000E94630721E04B2D61E070E082E092E066
:1010A0000E94630720E04C2F70E060E082E092E055
:1010B000CF91FF90EF90DF90CF90BF90AF909F9037
:1010C0008F900C94630740E264E070E082E092E06D
:1010D0000E94820788EEC81683E0D806E104F10476
:1010E0000CF0A8CF40E263E070E082E092E00E9462
:1010F000820784E6C816D104E104F1040CF0B2CFF3
:1011000040E262E070E082E092E00E948207C2CF9B
:101110008F929F92AF92BF92CF92DF92EF92FF9207
:10112000CF936B017C0120E030E0A9010E941E17E3
:1011300087FD0AC02AE93FE34CE156E4C701B60146
:101140000E94CC18181664F540E264E070E08AEA68
:1011500091E00E94820740E263E070E08AEA91E059
:101160000E94820740E262E070E08AEA91E00E9419
:10117000820740E261E070E08AEA91E00E94820723
:1011800040E270E060E08AEA91E0CF91FF90EF905A
:10119000DF90CF90BF90AF909F908F900C9482077C
:1011A00020E030E040E251E4C701B6010E9484171C
:1011B0000E9496186B017C018AE0882E912CA12C4C
:1011C000B12CC701B601A50194010E94F318C62FE6
:1011D000CA01B901A50194010E94F318B62E80E15D
:1011E000C81687E2D806E104F1040CF459C0C7011F
:1011F000B60120E137E240E050E00E94F318422FB0
:1012000020E064E070E08AEA91E00E946307C70191
:10121000B60128EE33E040E050E00E94F318CA0126
:10122000B9012AE030E040E050E00E94F318462F78
:1012300020E063E070E08AEA91E00E946307C70162
:10124000B60124E630E040E050E00E94F318CA0105
:10125000B9012AE030E040E050E00E94F318462F48
:1012600020E062E070E08AEA91E00E94630721E0FA
:101270004B2D61E070E08AEA91E00E94630720E074
:101280004C2F70E060E08AEA91E0CF91FF90EF9000
:10129000DF90CF90BF90AF909F908F900C9463079A
:1012A00040E264E070E08AEA91E00E94820788EE02
:1012B000C81683E0D806E104F1040CF0A8CF40E2A0
:1012C00063E070E08AEA91E00E94820784E6C81633
:1012D000D104E104F1040CF0B2CF40E262E070E02E
:1012E0008AEA91E00E948207C2CFDF92EF92FF92DA
:1012F0000F931F93CF93DF93FC01EA5AFF4F208196
:10130000318162177307C4F47B018C01EB0183E028
:10131000CC0FDD1F8A95E1F76096C00FD11FDD2449
:10132000D394199220E04D2DB701C8010E94D60632
:10133000D39489E0D812F5CFDF91CF911F910F910F
:10134000FF90EF90DF9008958F929F92AF92BF929F
:10135000CF92DF92EF92FF920F931F93CF93DF9381
:101360008C01D62EC72EEC01C05BDF4F68837983DA
:101370004C0182E5880E911CF40151834083580191
:10138000F4E5AF0EB11CF501318320837801F6E559
:10139000EF0EF11C81E090E0F7019183808361E022
:1013A0008D2D0E943F0461E0F40180810E943F0482
:1013B00061E0F50180810E943F0461E0F5018081D8
:1013C0000E941104D882C982F80170961192EC171C
:1013D000FD07E1F7D0E0C0E0F70180819181C817F7
:1013E000D90754F520E04FE0BE01C8010E94D6069F
:1013F000F70180819181C817D90734F427E04BE0C9
:10140000BE01C8010E94D60620E049E0BE01C80125
:101410000E94D606BE01C8010E947509F7018081AD
:101420009181C817D90734F420E04CE0BE01C8010F
:101430000E94D6062196D0CFDF91CF911F910F91B8
:10144000FF90EF90DF90CF90BF90AF909F908F90E4
:1014500008950E946E03882359F081E080938D05E2
:1014600080938E0580918F05909190050C94B9160C
:1014700010928E0560E070E0CB0108950E94290A69
:101480000C94290ACF92DF92EF92FF920E94290AD0
:101490006B017C0180E1C816D104E104F10460F421
:1014A000B6018AEA91E00E945107B60182E092E01B
:1014B0000E945107C0920001FF90EF90DF90CF9003
:1014C0000895CF92DF92EF92FF920E94290A6B015A
:1014D0007C018FEFC816D104E104F10409F030F467
:1014E000B6018BE00E947004C0920101FF90EF9062
:1014F000DF90CF9008950E94290A672B682B692BF3
:1015000029F470E060E08BE00C94700460910101BC
:10151000062E000C770BF7CFFB0101900020E9F7B6
:101520003197AF01461B570BDC01ED91FC91028016
:10153000F381E02D0994809143038823A1F0609109
:10154000960580919405909195050E94450580919E
:101550004B03882341F068E371E0809194059091FA
:1015600095050E948C0A10924A031092430380E072
:1015700008958F929F92AF92BF92EF92FF920F9336
:101580001F93CF93DF93CDB7DEB7A1970FB6F89433
:10159000DEBF0FBECDBF7C01FA01CB0119A2223004
:1015A00008F42AE08E010F5D1F4F822E912CB12C82
:1015B000A12CBF01A50194010E94D118F901CA0113
:1015C0006A300CF5605DD8016E938D01232B242BBE
:1015D000252B79F790E080E0109721F0BD01C7013D
:1015E0000E948C0AA1960FB6F894DEBF0FBECDBF45
:1015F000DF91CF911F910F91FF90EF90BF90AF902F
:101600009F908F900895695CDECFCF92DF92EF922A
:10161000FF920F931F93CF93DF9377FF1DC06A0153
:101620007B01EC016DE20E9445058C0144275527A2
:10163000BA014C195D096E097F092AE0CE010E94AA
:10164000B90A800F911FDF91CF911F910F91FF90E9
:10165000EF90DF90CF9008952AE0DF91CF911F9116
:101660000F91FF90EF90DF90CF900C94B90ACF9339
:10167000909143039923A9F0C82F60919705809119
:101680009405909195050E9445054C2FCC0F550B64
:10169000660B770B8091940590919505CF910C94F2
:1016A000050BCF910895CF93DF932091430322231D
:1016B000A9F0EC01609197058091940590919505B2
:1016C0000E944505AE01DD0F660B770B80919405F6
:1016D00090919505DF91CF910C94050BDF91CF91FF
:1016E000089590914303911110C091E090934303AA
:1016F00090934A03482F50E070E060E02AE0809128
:101700009405909195050C94B90A0895CF93DF93B1
:101710009091430391110AC0EB010E94710BCE011D
:101720000E944C05DF91CF910C949B0A80E0DF91E1
:10173000CF91089563EA70E083E00C94860BCF921A
:10174000DF92EF92FF92CF93DF930E946E03882384
:1017500009F48CC081E080938D0580938E05C09143
:101760008F05D09190056BE371E0CE010E94031BC1
:10177000892B09F080C080E00E94710B62E370E069
:1017800080E090E00E9407058EE495E00E944C0501
:1017900062E370E080E090E00E94070587E295E058
:1017A0000E944C0562E370E080E090E00E94070533
:1017B00085E195E00E944C0562E370E080E090E0F6
:1017C0000E94070582E090E00E94530B83E090E0C6
:1017D0000E94530B8DEE94E00E944C0562E370E092
:1017E00080E090E00E94070584EE94E00E944C05A2
:1017F00062E370E080E090E00E94070586ED94E0EF
:101800000E944C0562E370E080E090E00E940705D2
:101810000E949B0A68EC70E08BE00E94700464E612
:1018200070E080E090E00E94070570E060E08BE0EF
:101830000E94700464E670E080E090E00E9407057A
:1018400068EC70E08BE00E94700464E670E080E079
:1018500090E00E94070570E060E08BE0DF91CF919F
:10186000FF90EF90DF90CF900C94700410928E0553
:10187000D0E0C0E078CF60E471E0CE010E94031BAD
:10188000892B09F066C080E00E94710B8CEC94E01B
:101890000E944C0581E090E00E94530B0E949B0A3D
:1018A000809107010E94E80380930B01811139C0E8
:1018B00088E00E94710B80910801909109010E94BB
:1018C000530B81E090E00E94530B0E949B0A809191
:1018D00011010E94E8038093150181112EC088E058
:1018E0000E94710B80911201909113010E94530B81
:1018F00081E090E00E94530B0E949B0A80E00E94CE
:10190000710B82EC94E00E944C0582E090E00E9412
:10191000530BDF91CF91FF90EF90DF90CF900C941D
:101920009B0A88E00E94710B809108019091090147
:101930000E94530B90E080E0C6CF88E00E94710BBC
:1019400080911201909113010E94530B90E080E06E
:10195000D1CF6AE471E0CE010E94031B892B59F5B7
:101960000E9439056093990170939A0180939B01BD
:1019700090939C0180E00E94710B8DEB94E00E949B
:101980004C050E94290A6B017C0180914303882346
:1019900009F4BFCF609197058091940590919505CA
:1019A0000E944505B701A601809194059091950587
:1019B0000E94050BAECF6FE471E0CE010E94031BC5
:1019C000892BC9F470E060E08BE00E9470041092F3
:1019D000010170E060E08AEA91E00E94750970E020
:1019E00060E082E092E0DF91CF91FF90EF90DF9096
:1019F000CF900C94750963E571E0CE010E94031B42
:101A0000892B09F09DC080E00E94710B86EB94E069
:101A10000E944C058AEA94E00E944C058CE994E00F
:101A20000E944C0580E994E00E944C058DE794E00B
:101A30000E944C050E949B0A68E074E080E00E94CE
:101A4000860B62E370E080E090E00E94070562EBA5
:101A500073E080E00E94860B62E370E080E090E03B
:101A60000E9407056CE373E080E00E94860B62E34E
:101A700070E080E090E00E9407056DE073E080E098
:101A80000E94860B62E370E080E090E00E94070510
:101A90006EED72E080E00E94860B62E370E080E011
:101AA00090E00E94070566E972E080E00E94860BE4
:101AB00062E370E080E090E00E9407056FE172E071
:101AC00080E00E94860B62E370E080E090E00E947C
:101AD00007056AEC71E080E00E94860B62E370E02B
:101AE00080E090E00E9407056DE671E081E00E94D1
:101AF000860B62E370E080E090E00E94070566E0FC
:101B000071E081E00E94860B62E370E080E090E08B
:101B10000E9407056AEB70E081E00E94860B62E399
:101B200070E080E090E00E94070563EB70E080E0E9
:101B3000DF91CF91FF90EF90DF90CF900C94860BC8
:101B4000DF91CF91FF90EF90DF90CF900895CF93EA
:101B5000DF930E946E03882339F181E080938D0525
:101B600080938E05C0918F05D09190056AE571E054
:101B7000CE010E94031B892BE1F481E08093980140
:101B80008BE00E94710B809100010E94370B0E9434
:101B90009B0A8CE00E94710B809101010E94370B1F
:101BA000DF91CF910C949B0A10928E05D0E0C0E09B
:101BB000DDCF60E671E0CE010E94031B892B39F076
:101BC00065E671E0CE010E94031B892BC1F41092DF
:101BD000980170E060E08AEA91E00E94750970E087
:101BE00060E082E092E00E94750970E060E08BE0C6
:101BF0000E94700410920101DF91CF9108956FE46B
:101C000071E0CE010E94031B892BB1F7E0CFEF9268
:101C1000FF920F931F93CF93DF93EC017B01198207
:101C200018821B821A821D821C82FB0101900020F7
:101C3000E9F731978F01061B170BB8016F5F7F4FD4
:101C400090E080E00E943D1A0097B9F09983888364
:101C50001B830A832C813D81232B11F4FC0110820C
:101C60001D830C83B70188819981DF91CF911F91EA
:101C70000F91FF90EF900C940C1B88819981009735
:101C800011F00E94B419198218821D821C821B82D5
:101C90001A82DF91CF911F910F91FF90EF900895DD
:101CA0008F929F92AF92BF92CF92DF92EF92FF926C
:101CB0000E94290A4B015C010E94290A0E94290AFC
:101CC0006B017C010E946E03882321F181E08093E7
:101CD0008D0580938E0570E060E080918F05909176
:101CE00090050E944B1528EE821623E09206A1046F
:101CF000B104B1F029EE821623E09206A104B104EA
:101D000041F1FF90EF90DF90CF90BF90AF909F9008
:101D10008F90089510928E0560E070E0CB01E3CFC4
:101D200022E0C216D104E104F10451F4FF90EF90D7
:101D3000DF90CF90BF90AF909F908F900C948808C9
:101D4000CD28CE28CF28E9F660E070E080E89FEB50
:101D5000EDCF22E0C216D104E104F10451F4FF906A
:101D6000EF90DF90CF90BF90AF909F908F900C94AA
:101D70009B07CD28CE28CF2821F660E070E080E8D0
:101D80009FEBEDCF1F920F920FB60F9211242F935E
:101D90003F938F939F93AF93BF938091A2019091B4
:101DA000A301A091A401B091A5013091A10123E06C
:101DB000230F2D3758F50196A11DB11D2093A101C8
:101DC0008093A2019093A301A093A401B093A501D5
:101DD0008091A6019091A701A091A801B091A901BD
:101DE0000196A11DB11D8093A6019093A701A09318
:101DF000A801B093A901BF91AF919F918F913F919D
:101E00002F910F900FBE0F901F90189526E8230F6B
:101E10000296A11DB11DD2CF1F920F920FB60F9245
:101E200011242F933F934F935F936F937F938F93DF
:101E30009F93AF93BF93EF93FF9386EA92E00E9444
:101E4000F805FF91EF91BF91AF919F918F917F9195
:101E50006F915F914F913F912F910F900FBE0F9017
:101E60001F9018951F920F920FB60F9211242F9367
:101E70008F939F93EF93FF93E091B602F091B70297
:101E80008081E091BC02F091BD0282FD1BC0908177
:101E90008091BF028F5F8F732091C002821741F043
:101EA000E091BF02F0E0EA55FD4F958F8093BF02AD
:101EB000FF91EF919F918F912F910F900FBE0F90F7
:101EC0001F9018958081F4CFCF92DF92EF92FF920E
:101ED0001092A9021092A80288EE93E0A0E0B0E070
:101EE0008093AA029093AB02A093AC02B093AD0290
:101EF0008AE291E09093A7028093A60285EC90E09D
:101F00009093B3028093B20284EC90E09093B50278
:101F10008093B40280EC90E09093B7028093B60275
:101F200081EC90E09093B9028093B80282EC90E04B
:101F30009093BB028093BA0286EC90E09093BD022E
:101F40008093BC021092BF021092C0021092C10294
:101F50001092C20210929A051092990586EA92E0B8
:101F6000909395058093940510924B038CE2809397
:101F700097058BE3809396058FE28093980580E424
:101F8000809346038FE3809347031092450310929A
:101F9000900510928F05109292051092910581E0A4
:101FA00080938D05EBE9F5E01192119285E0EF3F0A
:101FB000F807D1F710924A0344E065E08BE992E01C
:101FC0000E94870642E063E080E992E00E94870673
:101FD0008BE0EBE9F2E0AAE5B2E001900D928A9580
:101FE000E1F760E771E085E692E00E94070E89E183
:101FF000C82E8CEFD82EEE24EA94FE2CC0926B02F1
:10200000D0926C02E0926D02F0926E026AE771E08B
:102010008FE692E00E94070E8BE0E0E9F2E0A5E790
:10202000B2E001900D928A95E1F76EE871E080E8E8
:1020300092E00E94070EC0928602D0928702E09240
:102040008802F09289026AE771E08AE892E00E94D1
:10205000070E26E030E048E050E067E070E082E004
:1020600092E00E94A40929E030E04CE050E06AE0F0
:1020700070E08AEA91E0FF90EF90DF90CF900C94AF
:10208000A409789484B5826084BD84B5816084BDE0
:1020900085B5826085BD85B5816085BD80916E0006
:1020A000816080936E001092810080918100826037
:1020B0008093810080918100816080938100809174
:1020C00080008160809380008091B1008460809363
:1020D000B1008091B00081608093B00080917A005F
:1020E000846080937A0080917A00826080937A0085
:1020F00080917A00816080937A0080917A00806874
:1021000080937A001092C1000E9439056093990172
:1021100070939A0180939B0190939C0160939D0121
:1021200070939E0180939F019093A001C2E0D1E043
:1021300006E111E062E088810E943F0425960C17B9
:102140001D07C1F761E08BE00E943F04809100020F
:10215000909101021816190644F425E04BE070E056
:1021600060E08AEA91E00E94D60680915802909140
:1021700059021816190644F425E04BE070E060E0BF
:1021800082E092E00E94D6068091000290910102C6
:102190001816190644F421E04CE070E060E08AEA89
:1021A00091E00E94D606809158029091590218162B
:1021B000190644F421E04CE070E060E082E092E037
:1021C0000E94D606C09100010C2E000CDD0BBE0152
:1021D0008AEA91E00E945107BE0182E092E00E94EB
:1021E0005107E091B602F091B70282E08083E0915E
:1021F000B202F091B3021082E091B402F091B50204
:102200008FEC80831092BE02E091BA02F091BB0283
:1022100086E08083E091B802F091B902808180610C
:102220008083E091B802F091B90280818860808358
:10223000E091B802F091B902808180688083E091DA
:10224000B802F091B90280818F7D808363E575E0EB
:1022500083E00E94860B8FE99BE090939C0580931E
:102260009B0587EA9DE09093A00580939F058AE9EE
:102270009BE09093A2058093A1058EE39AE0909352
:10228000A6058093A50580E59EE09093AA0580931E
:10229000A90582E49AE09093B2058093B10581E6A6
:1022A0009AE09093B4058093B3058BE79AE09093FE
:1022B000B6058093B50541E364E070E08AEA91E0F9
:1022C0000E9482074CE463E070E08AEA91E00E9499
:1022D000820742E362E070E08AEA91E00E948207AE
:1022E00040E561E070E08AEA91E00E94820740E206
:1022F00070E060E08AEA91E00E94820740E264E0D8
:1023000070E082E092E00E94820740E263E070E0C9
:1023100082E092E00E9482078091580290915902D7
:10232000181619065CF485E08093140225E043E05A
:1023300070E060E082E092E00E94D60642E361E055
:1023400070E082E092E00E94820740E370E060E08B
:1023500082E092E00E9482076DE471E080E090E00C
:102360000E94070570E060E08AEA91E00E9475092A
:1023700070E060E082E092E00E94750960910101E6
:10238000062E000C770B8BE00E94700440E0A42E18
:1023900040E0B42E662463945FE0552E7724739456
:1023A000CAE5D2E010E000E0DE01ED91FD91808110
:1023B000ED91FD919081ED91FD916C9163708E2373
:1023C00009F064609F2309F06860E1EFF1E1E60F36
:1023D000F11D659565956D936D917D918D919D91A3
:1023E000099423C01AC012C016C010C01EC009C074
:1023F00014C013C006C019C009C00DC007C00DC06D
:1024000014C062507040804090400BC061507040DA
:102410008040904006C06E5F01C06F5F7F4F8F4F5E
:102420009F4F9E938E937E936E938F819885A985FF
:10243000BA8532E0B595A795979587953A95D1F7E6
:1024400049895A896B897C89481759076A077B072C
:102450000CF015C2898B9A8BAB8BBC8B8091980149
:10246000882309F4EBC188E001151105F1F40E94FD
:10247000710B88EB9BE00E94530B81E090E00E947F
:10248000530B0E949B0A809102010E94E803892B52
:10249000B1F5809100018F5F80310CF0D4C1809341
:1024A0000001D3C101E010E07FCF0E94710B88EBE7
:1024B0009BE00E94530B84E690E00E94530B0E9425
:1024C0009B0A809102010E94E803892BC1F460916C
:1024D0000101685F60930101062E000C770B8BE011
:1024E0000E94700480919801882349F08CE00E943A
:1024F000710B809101010E94370B0E949B0A6B9621
:102500000130110579F60E94390500919D01109165
:102510009E0120919F013091A001601B710B820BE5
:10252000930B653671058105910508F4B8C080915B
:102530009801882309F481C0809102010E94E80378
:10254000EC0180910601082E000C990BC817D907E1
:10255000A1F0209709F0E4C188E00E94710B8091FE
:102560000301909104010E94530B81E090E00E94CE
:10257000530B0E949B0AC0930601809111010E9497
:10258000E803EC0180911501082E000C990BC81787
:10259000D907A1F0209709F0D3C188E00E94710B00
:1025A00080911201909113010E94530B81E090E001
:1025B0000E94530B0E949B0AC09315018091070152
:1025C0000E94E803EC0180910B01082E000C990B8E
:1025D000C817D907A1F0209709F0C2C188E00E946E
:1025E000710B80910801909109010E94530B81E0C9
:1025F00090E00E94530B0E949B0AC0930B01C09174
:102600001B018C2F0E94CD0480970CF0B9C18091E2
:102610001F01882309F4B4C188E00E94710B8091E6
:102620001C0190911D010E94530B81E090E00E94DB
:10263000530B0E949B0A10921F01809102010E947D
:10264000E803892B11F580911B010E94CD0480972E
:10265000E4F4C5E0D0E060E870E08BE00E94700434
:1026600064E670E080E090E00E94070570E060E0C2
:102670008BE00E94700464E670E080E090E00E94CD
:102680000705219741F70C9400000E9439056093DB
:102690009D0170939E0180939F019093A0010E94E1
:1026A00039050091990110919A0120919B01309177
:1026B0009C01601B710B820B930B613E734984403C
:1026C0009105D8F070E060E08AEA91E00E94750917
:1026D00070E060E082E092E00E94750970E060E0E6
:1026E0008BE00E9470040E943905609399017093F9
:1026F0009A0180939B0190939C0180914A038111E0
:1027000097C18091940590919505DC01ED91FC9124
:102710000084F185E02D0995892B09F489C1809108
:10272000940590919505DC01ED91FC910084F18573
:10273000E02D0995E12C22E0F22E8115924064F4FF
:102740008091940590919505DC01ED91FC910084B8
:10275000F185E02D09957C01C0919405D0919505F6
:102760009CE8C92E93E0D92E460110E000E0E01667
:10277000F10609F022C1D0E0C0E0EC16FD0609F434
:10278000BCCFF60191916F0110928C0530919805A4
:102790002091490390934903931304C0921302C0FC
:1027A0001092490380914503E82FF0E0409196058F
:1027B000ED5BFC4F941324C1321709F421C111863B
:1027C000882321F070928C051092490310924503E2
:1027D0001092900510928F0510929205109291051B
:1027E00070928D0510918C05113009F01FC10E9467
:1027F0006E03882309F40EC110938D0510938E0586
:1028000080918F05909190050E949B1680934403C0
:10281000823308F004C120918E05222309F4FFC001
:10282000FC01FF27EE0FFF1FE556FA4F0190F081E4
:10283000E02D309709F4F3C00995F8C00130110577
:1028400009F021CE3ECE50920001E09000010E2C06
:10285000000CFF08B7018AEA91E00E945107B70116
:1028600082E092E00E94510780919801882309F448
:1028700046CE8BE00E94710B809100013CCE841704
:102880009507A607B7070CF03ACE898B9A8BAB8BCE
:10289000BC8B809198018823E1F188E00115110536
:1028A000D9F40E94710B88EB9BE00E94530B8FEFD1
:1028B0009FEF0E94530B0E949B0A809102010E948D
:1028C000E803892B09F01BCE80910001815087FF1E
:1028D000E6CD10920001B9CF0E94710B88EB9BE00E
:1028E0000E94530B8CE99FEF0E94530B0E949B0A9E
:1028F000809102010E94E803892B09F000CE8091AB
:102900000101885087FD09C0809301016091010198
:10291000E3CD0130110589F6EBCF10920101F6CF1E
:10292000C130D10509F027CE88E00E94710B80915B
:102930000301909104010E94530B90E080E017CEB8
:10294000C130D10509F038CE88E00E94710B80912A
:102950001201909113010E94530B90E080E028CE69
:10296000C130D10509F049CE88E00E94710B8091F9
:102970000801909109010E94530B90E080E039CE4C
:102980008C2F0E94CD04813491050CF456CE809199
:102990001F01811152CE88E00E94710B80911C01B1
:1029A00090911D010E94530B90E080E00E94530B18
:1029B0000E949B0A60921F0140CE0E9439056887E1
:1029C00079878A879B87E881F9810284F385E02DE6
:1029D000CE01099597FF38C00E94390528853985B1
:1029E0004A855B85621B730B840B950B2C813D81A3
:1029F0004E815F81621773078407950720F3BBCE72
:102A000091878F5F8093450390914703891708F062
:102A1000DDCEE8CE10928E0590E080E0F7CEE0911A
:102A20009905F0919A05309709F006CF2196A5CE29
:102A3000A114B10409F4B4CC0E94E405882309F47C
:102A4000AFCC0E940000ACCCD4018D934D010F5F40
:102A50001F4F8DCE80918A0290918B02009711F0CA
:102A60000E94B4198091800290918102009711F028
:102A70000E94B41980916F0290917002009711F03A
:102A80000E94B4198091650290916602009711F03E
:102A90000C94B4190895B0E0A0E0E1E5F5E10C94E0
:102AA00056185C017B016115710519F0DB018D93EE
:102AB0009C9385010F5F1F4FF501D0818D2F90E012
:102AC0000E94E0166C01892BB9F5DD32B9F50F5F74
:102AD0001F4FD5011196DC91C1E05801F1E0AF1A0A
:102AE000B10843E050E060E770E0C5010E94E916DC
:102AF000892B69F5680182E0C80ED11C45E050E0E1
:102B00006BE670E0C6010E94E916892B21F468018A
:102B100097E0C90ED11CE114F10419F0D701CD9250
:102B2000DC9260E070E080E89FEFC111FFC060E0E0
:102B300070E080E89FE7FAC05801BBCFDB3229F490
:102B400085010E5F1F4FF501D181C0E0C6CF43E084
:102B500050E068E670E0C5010E94E916892BE9F0B3
:102B6000F80110E000E020E030E0A9015F01B0EDE5
:102B70008B2E8D0E89E08815C8F19C2E689491F8F3
:102B80008C2F8870C2FF16C0811102C00F5F1F4FCB
:102B90003196D501DC91C92DE9CFE114F10429F07A
:102BA0000E5F1F4FF7011183008360E070E080EC3F
:102BB0009FE7BCC0882311F001501109A5E0B0E0E7
:102BC0000E9445189B01AC01220F331F441F551F63
:102BD000280D311D411D511D283999E93907490733
:102BE00099E15907A8F2C6609C2ED2CFAEEF8A12A7
:102BF00006C0C3FD3CC09C2E689493F8C9CFDF7D0E
:102C0000D534A9F580818D3239F4C061DF01129687
:102C1000818162E070E006C0DF018B32C1F3119662
:102C200061E070E080535D01A61AB70A8A30F8F4BB
:102C3000E0E8CE16ECE0DE065CF4B601660F771F26
:102C4000660F771FC60ED71ECC0CDD1CC80ED11C1C
:102C50005D01FFEFAF1ABF0A8C9180538A30A8F153
:102C6000C4FF03C0D194C194D1080C0D1D1DC1FF38
:102C700009C0E114F10431F081E0A81AB108D701CC
:102C8000AD92BC92CA01B9010E942317C370C33030
:102C900009F490584B015C0120E030E0A9010E944A
:102CA0001E17882309F440C0CFE9D0E017FF05C004
:102CB000119501951109C7E8D0E06E01B8E1CB1A72
:102CC000D10880E2E82EF12C0FC0D501B1CFFE0172
:102CD00025913591459154910E191F09C501B401F3
:102CE0000E9484174B015C01D501C4010E151F051C
:102CF00074F72497F594E794CC16DD06A9F78A2F8C
:102D0000880F8B2F881F8F3F49F020E030E0A9010A
:102D1000C501B4010E941E17811106C082E290E035
:102D2000909300068093FF05C501B401CDB7DEB7CF
:102D3000ECE00C947218FC0188279927E894219103
:102D40002032E9F3293010F02E30C8F32B3241F055
:102D50002D3239F4689404C00E941617820F911D19
:102D6000219120532A30C0F31EF4909581959F4FF6
:102D700008951F93FC0199278827BC01E8941191BD
:102D80001032E9F3193010F01E30C8F31B3251F045
:102D90001D3249F4689406C00E940117610F711D2D
:102DA000811D911D119110531A30B0F33EF490958E
:102DB0008095709561957F4F8F4F9F4F1F9108951C
:102DC00091110C94F117803219F089508550C8F791
:102DD0000895FB01DC014150504088F08D91813411
:102DE0001CF08B350CF4805E659161341CF06B3502
:102DF0000CF4605E861B611171F3990B0895881BBA
:102E0000FCCF592F482F372F262F660F771F881F8B
:102E1000991F660F771F881F991F620F731F841FEA
:102E2000951F660F771F881F991F08957AE0979F57
:102E3000902D879F802D910D112408950E94601779
:102E400008F481E00895E89409C097FB3EF490955A
:102E50008095709561957F4F8F4F9F4F9923A9F073
:102E6000F92F96E9BB279395F69587957795679502
:102E7000B795F111F8CFFAF4BB0F11F460FF1BC046
:102E80006F5F7F4F8F4F9F4F16C0882311F096E9D9
:102E900011C0772321F09EE8872F762F05C0662387
:102EA00071F096E8862F70E060E02AF09A95660F40
:102EB000771F881FDAF7880F9695879597F90895F9
:102EC000990F0008550FAA0BE0E8FEEF161617063B
:102ED000E807F907C0F012161306E407F50798F0A3
:102EE000621B730B840B950B39F40A2661F0232BBC
:102EF000242B252B21F408950A2609F4A140A69538
:102F00008FEF811D811D08950E9497170C940B1857
:102F10000E94FD1738F00E94041820F0952311F04C
:102F20000C94F4170C94FA1711240C943F180E9477
:102F30001C1870F3959FC1F3950F50E0551F629FC9
:102F4000F001729FBB27F00DB11D639FAA27F00D02
:102F5000B11DAA1F649F6627B00DA11D661F829F29
:102F60002227B00DA11D621F739FB00DA11D621F0E
:102F7000839FA00D611D221F749F3327A00D611D2B
:102F8000231F849F600D211D822F762F6A2F11240D
:102F90009F5750409AF0F1F088234AF0EE0FFF1F40
:102FA000BB1F661F771F881F91505040A9F79E3F97
:102FB000510580F00C94F4170C943F185F3FE4F334
:102FC000983ED4F3869577956795B795F795E795ED
:102FD0009F5FC1F7FE2B880F911D9695879597F9F6
:102FE000089599278827089597F99F6780E870E0EA
:102FF00060E008959FEF80EC089500240A9416166F
:10300000170618060906089500240A9412161306D6
:10301000140605060895092E0394000C11F4882364
:1030200052F0BB0F40F4BF2B11F460FF04C06F5F80
:103030007F4F8F4F9F4F089557FD9058440F551F56
:1030400059F05F3F71F04795880F97FB991F61F02A
:103050009F3F79F087950895121613061406551FA1
:10306000F2CF4695F1DF08C0161617061806991F0D
:10307000F1CF86957105610508940895E894BB2702
:1030800066277727CB0197F908950E948718A59F97
:10309000900DB49F900DA49F800D911D1124089553
:1030A0002F923F924F925F926F927F928F929F9258
:1030B000AF92BF92CF92DF92EF92FF920F931F9346
:1030C000CF93DF93CDB7DEB7CA1BDB0B0FB6F894F7
:1030D000DEBF0FBECDBF09942A88398848885F8437
:1030E0006E847D848C849B84AA84B984C884DF80A8
:1030F000EE80FD800C811B81AA81B981CE0FD11D8C
:103100000FB6F894DEBF0FBECDBFED010895A29FAC
:10311000B001B39FC001A39F700D811D1124911DAB
:10312000B29F700D811D1124911D08950E949D185C
:103130006894B1110C943F1808950E94241888F0E7
:103140009F5798F0B92F9927B751B0F0E1F0660F6B
:10315000771F881F991F1AF0BA95C9F714C0B130AC
:1031600091F00E943E18B1E008950C943E18672F2C
:10317000782F8827B85F39F0B93FCCF386957795DB
:103180006795B395D9F73EF49095809570956195C4
:103190007F4F8F4F9F4F08950E94601708F48FEF65
:1031A0000895A1E21A2EAA1BBB1BFD010DC0AA1F88
:1031B000BB1FEE1FFF1FA217B307E407F50720F0A0
:1031C000A21BB30BE40BF50B661F771F881F991F1B
:1031D0001A9469F760957095809590959B01AC0164
:1031E000BD01CF010895052E97FB1EF400940E94A7
:1031F0000A1957FD07D00E94D11807FC03D04EF4DE
:103200000C940A1950954095309521953F4F4F4F9A
:103210005F4F089590958095709561957F4F8F4F82
:103220009F4F0895EE0FFF1F0590F491E02D099434
:103230000F931F93CF93DF938230910510F482E0B8
:1032400090E0E0910306F091040630E020E0B0E069
:10325000A0E0309799F42115310509F44AC0281BE4
:10326000390B24303105D8F58A819B8161157105B0
:1032700089F1FB0193838283FE0111C0408151815A
:103280000281138148175907E0F04817590799F44C
:10329000109761F012960C93129713961C93329626
:1032A000CF01DF91CF911F910F91089500930306F5
:1032B00010930406F4CF2115310551F0421753073E
:1032C00038F0A901DB019A01BD01DF01F801C1CF8E
:1032D000EF01F9CF9093040680930306CDCFFE0152
:1032E000E20FF31F81939193225031093983288390
:1032F000D7CF2091010630910206232B41F4209173
:10330000220130912301309302062093010620917F
:103310002001309121012115310541F42DB73EB72F
:103320004091240150912501241B350BE0910106A9
:10333000F0910206E217F307A0F42E1B3F0B2817AB
:10334000390778F0AC014E5F5F4F2417350748F01E
:103350004E0F5F1F50930206409301068193919395
:103360009FCFF0E0E0E09CCFCF93DF930097E9F0B0
:10337000FC01329713821282A0910306B0910406D9
:10338000ED0130E020E01097A1F420813181820F1F
:10339000931F20910106309102062817390709F082
:1033A00061C0F0930206E0930106DF91CF9108958A
:1033B000EA01CE17DF07E8F54A815B819E014115DE
:1033C0005105B1F7E901FB83EA8349915991C40F93
:1033D000D51FEC17FD0761F4808191810296840F5F
:1033E000951FE90199838883828193819B838A83D6
:1033F000F0E0E0E012968D919C9113970097B9F55B
:103400002D913C911197CD010296820F931F20912F
:103410000106309102062817390739F6309751F521
:103420001092040610920306B0930206A0930106C0
:10343000BCCFD383C28340815181840F951FC817AD
:10344000D90761F44E5F5F4F88819981480F591FFA
:10345000518340838A819B81938382832115310527
:1034600009F0B0CFF0930406E09303069ECFFD0170
:10347000DC01C0CF13821282D7CFB0E0A0E0E3E43A
:10348000FAE10C9452188C01009751F4CB010E9480
:1034900018198C01C801CDB7DEB7E0E10C946E18A5
:1034A000FC01E60FF71F9C0122503109E217F307D8
:1034B00008F49DC0D901CD91DC911197C617D707AB
:1034C00098F0C530D10530F3CE01049786179707E1
:1034D00008F3C61BD70B2297C193D1936D937C93AE
:1034E000CF010E94B419D6CF5B01AC1ABD0A4C01C2
:1034F0008C0E9D1EA0910306B0910406512C412C08
:10350000F12CE12C109731F5809101069091020683
:103510008815990509F05CC04616570608F058C092
:103520008091200190912101009741F48DB79EB7C1
:103530004091240150912501841B950BE817F90750
:1035400008F055C0F0930206E0930106F90171837B
:103550006083A0CF8D919C91119712966C901297D9
:1035600013967C901397A815B90559F56C0142E0A4
:10357000C40ED11CCA14DB0420F1AC014A195B094A
:10358000DA011296159780F062827382518340832C
:10359000D9016D937C93E114F10471F0D701139676
:1035A000FC93EE93129776CF22968C0F9D1FF90114
:1035B00091838083F301EFCFF0930406E093030639
:1035C00069CF4816590608F42C017D01D3019ACF22
:1035D000CB010E9418197C01009749F0AE01B80197
:1035E0000E94FA1AC8010E94B419870153CF10E053
:1035F00000E050CFFB01DC0102C001900D92415070
:103600005040D8F70895FB01DC018D91019080199D
:103610000110D9F3990B0895FB01DC0101900D9283
:103620000020E1F7089513E0C2E2D3E004C0FE01F8
:103630000E9412192196C332D107C9F7F894FFCF1F
:10364000084010D00701FF11D10701FF12D1070177
:10365000FF13D20701FF14D20701FF15D30701FFA3
:10366000000005068000000000001A067A05A70584
:103670006706D805B605CA050D0A00494E4954002B
:103680005343414E53544154450050494E47004521
:103690004E4400434F4E4649470053544152540054
:1036A00053544F5000444953434F4E4E45435400EA
:1036B000494E4E45525F454E4300535041445F448E
:1036C0004F55424C455F454E434F444552004F5580
:0836D0005445525F454E4300D2
:00000001FF
