:100000000C94DA000C9417080C94F0070C9402017D
:100010000C9402010C9402010C9402010C94020154
:100020000C9402010C9402010C9402010C94020144
:100030000C9402010C9402010C9402010C94020134
:100040000C94A6070C9402010C9474070C944E07B0
:100050000C9402010C9402010C9402010C94020114
:100060000C9402010C9402014E414E494E495459E0
:10007000494E46CDCCCC3D0AD7233C17B7D1387773
:10008000CC2B329595E6241FB14F0A000020410089
:1000900000C84200401C4620BCBE4CCA1B0E5AAED3
:1000A000C59D7400000000240027002A0000000005
:1000B00000250028002B0000000000230026002956
:1000C0000004040404040404040202020202020301
:1000D000030303030301020408102040800102040B
:1000E000081020010204081020000000080002018E
:1000F0000000030407000000000000000073696DA9
:100100002F726164696F732F737462795F616466C3
:10011000315F6F6E65735F74656E735F646F776E6A
:100120000073696D2F726164696F732F73746279E4
:100130005F616466315F6F6E65735F74656E735F78
:1001400075700073696D2F726164696F732F7374BA
:1001500062795F616466315F68756E64726564734D
:100160005F74686F75735F646F776E0073696D2F6E
:10017000726164696F732F737462795F6164663151
:100180005F68756E64726564735F74686F75735FC2
:1001900075700073696D2F726164696F732F61648C
:1001A00066315F7374616E64795F666C69700000BC
:1001B000DC08131411241FBECFEFD8E0DEBFCDBF83
:1001C00026E0AAE0B3E001C01D92A93EB207E1F724
:1001D00013E0A0E0B1E0E6EDFAE302C005900D9275
:1001E000AA30B107D9F710E0C9EDD0E004C02197DB
:1001F000FE010E94B718C83DD107C9F70E946E09D9
:100200000C945E1D0C940000FC0124813581621762
:10021000730720F480819181009729F410921703CD
:1002200087E193E00895860F971F08950895AF9290
:10023000BF92CF92DF92EF92FF920F931F93CF93D3
:10024000DF936C017B018B01040F151FEB015E0135
:10025000AE18BF08C017D10759F06991D601ED91CA
:10026000FC910190F081E02DC6010995892B79F769
:10027000C501DF91CF911F910F91FF90EF90DF901B
:10028000CF90BF90AF900895FC01538D448D252FE2
:1002900030E0842F90E0821B930B541710F0CF9620
:1002A000089501970895FC01918D828D981761F052
:1002B000A28DAE0FBF2FB11D5D968C91928D9F5F69
:1002C0009F73928F90E008958FEF9FEF0895FC0148
:1002D000918D828D981731F0828DE80FF11D858DFB
:1002E00090E008958FEF9FEF0895FC01918D228D8E
:1002F000892F90E0805C9F4F821B91098F73992713
:10030000089582E793E00E94750121E0892B09F4AA
:1003100020E0822F089580E090E0892B29F00E9450
:10032000810181110C9400000895FC01A48DA80F97
:10033000B92FB11DA35ABF4F2C91848D90E0019627
:100340008F739927848FA689B7892C93A089B18947
:100350008C91837080648C93938D848D981306C0E8
:100360000288F389E02D80818F7D80830895EF924C
:10037000FF920F931F93CF93DF93EC0181E0888F5F
:100380009B8D8C8D98131AC0E889F989808185FF2F
:1003900015C09FB7F894EE89FF896083E889F989D1
:1003A00080818370806480839FBF81E090E0DF91D3
:1003B000CF911F910F91FF90EF900895F62E0B8D26
:1003C00010E00F5F1F4F0F731127E02E8C8D8E11E1
:1003D0000CC00FB607FCFACFE889F989808185FF48
:1003E000F5CFCE010E949501F1CFEB8DEC0FFD2FE3
:1003F000F11DE35AFF4FF0829FB7F8940B8FEA8903
:10040000FB8980818062CFCFCF93DF93EC01888D11
:100410008823B9F0AA89BB89E889F9898C9185FD7F
:1004200003C0808186FD0DC00FB607FCF7CF8C910D
:1004300085FFF2CF808185FFEDCFCE010E9495012F
:10044000E9CFDF91CF910895833081F028F4813096
:1004500099F08230A9F008958730A9F08830C9F06A
:100460008430B1F4809180008F7D03C08091800042
:100470008F7780938000089584B58F7784BD089529
:1004800084B58F7DFBCF8091B0008F778093B000D3
:1004900008958091B0008F7DF9CFCF93DF93282FFF
:1004A00030E0F901E751FF4F8491F901EB52FF4F22
:1004B000D491F901EF53FF4FC491CC23A1F08111E6
:1004C0000E942402EC2FF0E0EE0FFF1FE954FF4FD3
:1004D000A591B491EC91ED2381E090E009F480E0E6
:1004E000DF91CF91089580E090E0FACF1F93CF93F2
:1004F000DF93282F30E0F901E751FF4F8491F90194
:10050000EB52FF4FD491F901EF53FF4FC491CC232D
:10051000A9F0162F81110E942402EC2FF0E0EE0FBB
:10052000FF1FE355FF4FA591B4918FB7F894EC915D
:10053000111108C0D095DE23DC938FBFDF91CF91DE
:100540001F910895DE2BF8CFCF93DF9390E0FC014D
:10055000EB52FF4F24918F539F4FFC0184918823CE
:10056000D1F090E0880F991FFC01ED55FF4FA59148
:10057000B491FC01E355FF4FC591D491623071F401
:100580009FB7F8943C91822F809583238C93E881C8
:100590002E2B28839FBFDF91CF9108958FB7F894BA
:1005A000EC912E2B2C938FBFF6CF1F93CF93DF931D
:1005B000182FEB0161E00E94A402209739F460E05B
:1005C000812FDF91CF911F910C947602CF3FD105FF
:1005D00011F461E0F5CFE12FF0E0E751FF4FE49136
:1005E000E33031F140F4E130B1F0E230E1F0C03815
:1005F000D1057CF7E4CFE73029F1E83059F1E43058
:10060000B1F780918000806280938000D0938B004E
:10061000C0938A0004C084B5806884BDC7BDDF91E3
:10062000CF911F91089584B5806284BDC8BDF7CF76
:1006300080918000806880938000D0938900C0936F
:100640008800EDCF8091B00080688093B000C093A7
:10065000B300E5CF8091B00080628093B000C0937A
:10066000B400DDCF3FB7F894809113039091140349
:10067000A0911503B091160326B5A89B05C02F3F86
:1006800019F00196A11DB11D3FBFBA2FA92F982FB8
:100690008827BC01CD01620F711D811D911D42E0B3
:1006A000660F771F881F991F4A95D1F708958F927B
:1006B0009F92AF92BF92CF92DF92EF92FF920E94F1
:1006C00032034B015C018FE0C82ED12CE12CF12CC0
:1006D0000E943203681979098A099B09683E7340B0
:1006E00081059105A8F321E0C21AD108E108F108BB
:1006F00088EE880E83E0981EA11CB11CC114D104A1
:10070000E104F10429F7FF90EF90DF90CF90BF90C4
:10071000AF909F908F9008952FB7F89460910F033A
:100720007091100380911103909112032FBF0895CF
:100730000895DC01ED91FD918081ED91FD91908115
:10074000ED91FD916C9163708E2309F064609F239D
:1007500009F06860E6EBF3E0E60FF11D659565953D
:100760006D936D917D918D919D91099423C01AC0D7
:1007700012C016C010C01EC009C014C013C006C0ED
:1007800019C009C00DC007C00DC014C06250704030
:10079000804090400BC0615070408040904006C047
:1007A0006E5F01C06F5F7F4F8F4F9F4F9E938E9301
:1007B0007E936E93089580910C0390910D030C9499
:1007C000990380910A0390910B030C9499030F9362
:1007D0001F93CF93DF93082F162FD42FC8E06D2FD0
:1007E000661F6627661F802F0E947602DD0F61E07C
:1007F000812F0E94760260E0812F0E947602C15014
:1008000071F7DF91CF911F910F9108950F931F936F
:10081000CF93DF9300D0CDB7DEB78C0169834A83D5
:1008200060E0FC0182810E9476024981F8016081CA
:1008300084810E94E7034A81F801608184810E94DB
:10084000E70361E0F80182810F900F90DF91CF9173
:100850001F910F910C9476023DED340F3A30B0F0B9
:1008600030E0AAE1B1E0F0E0E0E05C915523A1F0D6
:10087000129654130FC0EE0FFF1FE65EFE4F41812C
:10088000232B09F040686F5F0C940604435F21E05E
:1008900030E0E7CF3196E9CF40E0F5CF462F4F70FB
:1008A0006AE00C9406040F931F93CF938C01C1E070
:1008B00040E06C2FC8010E940604CF5FC930C1F729
:1008C000CF911F910F910895CF93DF93EC0161E0D9
:1008D0008A810E94760247E06BE0CE010E94060406
:1008E00040E069E0CE010E94060441E06CE0CE01E8
:1008F0000E94060440E06FE0CE010E940604CE0193
:100900000E9453046FE0CE01DF91CF910C944E040E
:100910006F927F928F929F92AF92BF92CF92DF920F
:10092000EF92FF920F931F93CF93DF93CDB7DEB774
:10093000E0970FB6F894DEBF0FBECDBF4C011AA2F0
:1009400019A2FE01B3968EE0DF011D928A95E9F7A8
:10095000FB0101900020E9F7CF010197861B970B5F
:100960008131910510F080E190E0DB0110E000E0C2
:1009700021E030E0AD01461B570B481759072CF515
:100980004D914E3269F4F8013197EE0FFF1F41E0AF
:1009900050E04C0F5D1FE40FF51F31832083EACF39
:1009A000E1E2F0E0EC0FFD1FE00FF11F4083F801E2
:1009B000EE0FFF1F41E050E04C0F5D1FE40FF51FED
:1009C000118210820F5F1F4FD5CF0930110514F02F
:1009D00008E010E0CE0101967C015E0191E2A90ED3
:1009E000B11C650138016A0C7B1CC6018A199B0980
:1009F0008017910794F4D7018D919D917D01F601A7
:100A000041916F0121E0892B09F420E0B3016C19B9
:100A10007D09C4010E942C04E8CFE0960FB6F8943B
:100A2000DEBF0FBECDBFDF91CF911F910F91FF9021
:100A3000EF90DF90CF90BF90AF909F908F907F907E
:100A40006F900895FB0101900020E9F73197AF0105
:100A5000461B570BDC01ED91FC910280F381E02DE8
:100A6000099469EA74E080910F04909110040E9447
:100A70002205E9EAF4E001900020E9F7EA5EF4409B
:100A800041F468E971E080910F04909110040C9496
:100A9000220508950F931F93CF93DF93C091DF0634
:100AA000D091E006C436D1056CF58C0180E190E070
:100AB0000E94BD18FC01DE01AA0FBB1FAB5EB94F3F
:100AC000ED93FC931583048313821282138612869E
:100AD00081E090E0958784878FEF9FEF91838083FB
:100AE00097878687CE0101969093E0068093DF0674
:100AF0001092E2061092E106CE01DF91CF911F9194
:100B00000F910895CFEFDFEFF7CFEF92FF920F93A2
:100B10001F93CF93DF93C091DD06D091DE06C436DC
:100B2000D1050CF046C08B017C0184E290E00E946C
:100B3000BD18FC01DE01AA0FBB1FA35BBA4FED93EA
:100B4000FC93178A168AF58AE48A82E090E0938300
:100B5000828395838483118F008F168E178E10A247
:100B600011A284E690E0A0E0B0E084879587A68794
:100B7000B78780E090E0A0E8BFE386839783A087F3
:100B8000B18713A212A28FEF9FEF91838083CE01D2
:100B900001969093DE068093DD061092E206109295
:100BA000E106CE01DF91CF911F910F91FF90EF9061
:100BB0000895CFEFDFEFF5CFEF92FF920F931F93E2
:100BC000CF93DF93C091DD06D091DE06C436D10508
:100BD0000CF042C08B017C0184E290E00E94BD18C1
:100BE000FC01DE01AA0FBB1FA35BBA4FED93FC9380
:100BF000178A168AF58AE48A81E090E093838283DB
:100C0000168217821086118644E650E060E070E09C
:100C1000448755876687778795838483118F008FF4
:100C2000128E138E148E158E13A212A28FEF9FEFC9
:100C300091838083CE0101969093DE068093DD063A
:100C40001092E2061092E106CE01DF91CF911F9142
:100C50000F91FF90EF900895CFEFDFEFF5CF880F62
:100C6000991FFC01EB5EF94F0190F081E02D309768
:100C700049F18081918197FD22C01F922EE32F932D
:100C80001F9221E02F939F938F931F928BE68F9358
:100C90001F928CE38F938AE991E09F938F9389EA67
:100CA00094E09F938F930E94BD1A0E9431058DB7E7
:100CB0009EB70E960FB6F8949EBF0FBE8DBF90E004
:100CC00080E008958FEF9FEF089577FD1EC01F927B
:100CD0002EE32F937F936F939F938F931F928CE3B9
:100CE0008F9388EA91E09F938F9389EA94E09F9392
:100CF0008F930E94BD1A8DB79EB70C960FB6F894CD
:100D00009EBF0FBE8DBF0C94310508951F93CF93E6
:100D1000DF93CFE0D4E01F811F8283E194E00E9443
:100D20001F141F83DF91CF911F910895FC018081D3
:100D30009181009711F00C94591908950F931F9306
:100D4000CF93DF938C01EB01FC01808191810097AF
:100D5000E1F06881798161157105A9F042815381C3
:100D60002C813D814217530770F00E94A81A8C8194
:100D70009D81F801958384831D821C82DF91CF9130
:100D80001F910F9108950E94591988819981F80146
:100D9000918380838A819B81938382838C819D81CF
:100DA00095838483198218821B821A82E5CFEF9281
:100DB000FF920F931F93CF93DF93EC017B018A0186
:100DC00088819981009729F02A813B812417350772
:100DD00088F4B8016F5F7F4F0E94E219009791F08D
:100DE000998388831B830A832C813D81232B11F4F3
:100DF000FC0110821D830C83B701888199810E94B8
:100E0000A81A0CC088819981009711F00E94591985
:100E1000198218821D821C821B821A82CE01DF91E8
:100E2000CF911F910F91FF90EF900895EF92FF9255
:100E30000F931F93CF93DF93CDB7DEB7A2970FB673
:100E4000F894DEBF0FBECDBF8C01CB01BA01F80113
:100E50001182108213821282158214822AE0AE015E
:100E60004F5F5F4F7A010E946414F70101900020E8
:100E7000E9F73197AF014E195F09B701C8010E9428
:100E8000D706A2960FB6F894DEBF0FBECDBFDF9196
:100E9000CF911F910F91FF90EF9008951F920F92A5
:100EA0000FB60F9211242F933F934F935F936F933D
:100EB0007F938F939F93AF93BF93EF93FF9382E7BB
:100EC00093E00E949501FF91EF91BF91AF919F91A7
:100ED0008F917F916F915F914F913F912F910F90E3
:100EE0000FBE0F901F9018951F920F920FB60F9282
:100EF00011242F938F939F93EF93FF93E09182039D
:100F0000F09183038081E0918803F091890382FD51
:100F10001BC0908180918B038F5F8F7320918C0316
:100F2000821741F0E0918B03F0E0EE58FC4F958F73
:100F300080938B03FF91EF919F918F912F910F9051
:100F40000FBE0F901F9018958081F4CF1F920F92C3
:100F50000FB60F9211242F933F938F939F93AF93CC
:100F6000BF9380910F0390911003A0911103B09152
:100F7000120330910E0323E0230F2D3758F501960D
:100F8000A11DB11D20930E0380930F0390931003B6
:100F9000A0931103B0931203809113039091140353
:100FA000A0911503B09116030196A11DB11D809368
:100FB000130390931403A0931503B0931603BF91EA
:100FC000AF919F918F913F912F910F900FBE0F90F6
:100FD0001F90189526E8230F0296A11DB11DD2CFB0
:100FE0001F920F920FB60F9211242F933F934F939E
:100FF0005F936F937F938F939F93AF93BF93EF9381
:10100000FF93E0910201F09103010995FF91EF91A7
:10101000BF91AF919F918F917F916F915F914F9110
:101020003F912F910F900FBE0F901F9018951F9218
:101030000F920FB60F9211242F933F934F935F930C
:101040006F937F938F939F93AF93BF93EF93FF9390
:10105000E0910001F09101010995FF91EF91BF919D
:10106000AF919F918F917F916F915F914F913F9140
:101070002F910F900FBE0F901F901895FB010590B8
:101080000020E9F7609570956E0F7F1FCB010895E2
:10109000FA01DC012150304030F08D91059080192B
:1010A00019F40020B9F7881B990B0895823021F0BC
:1010B0008330A9F080E0089570930B0360930A03D6
:1010C00081EE93E09093010180930001809169008B
:1010D0008C7F816080936900E89A81E00895709325
:1010E0000D0360930C038BED93E0909303018093C9
:1010F000020180916900837F846080936900E99A8E
:10110000ECCF0F931F93CF93DF93EC01062F142F97
:1011100062E0802F0E94A40262E0812F0E94A4025C
:10112000802F90E0FC01EF53FF4FE491F0E0EE0FD1
:10113000FF1FE954FF4FA591B491B983A883FC0127
:10114000EB52FF4F24912C83812F90E0FC01EF5351
:10115000FF4FE491F0E0EE0FFF1FE954FF4F459180
:1011600054915B834A83FC01EB52FF4FE491ED8382
:101170001F82188619861A868BE39FE10197F1F783
:101180008C91282391E009F490E0DA018C91E82316
:1011900009F092609E83BE01802F0E9456088B87C3
:1011A000BE01812F0E9456089B85890F8B87DF9196
:1011B000CF911F910F910895CF93DF93E2E7F3E072
:1011C000138212828AE891E09183808385EC90E01B
:1011D0009587848784EC90E09787868780EC90E001
:1011E000918B808B81EC90E0938B828B82EC90E0F2
:1011F000958B848B86EC90E0978B868B118E128E6C
:10120000138E148EF0931004E0930F0484EF91E09A
:10121000A0E0B0E084839583A683B783CCE6D3E0D7
:101220008AE090E09D838C8389E090E09B838A83B1
:101230008CE090E09983888361E08AE00E94A402B8
:1012400061E08A810E94A40261E088810E94A40278
:10125000C6E6D3E087E090E09D838C8386E090E053
:101260009B838A8388E090E09983888361E087E0AC
:101270000E94A40261E08A810E94A40261E0888148
:101280000E94A40243E062E08AE593E00E948108A4
:1012900045E064E08EE493E00E948108E8E4F3E036
:1012A00011821082138212821582148250E040E073
:1012B00069E971E0CF010E94D706E2E4F3E0118210
:1012C0001082138212821582148250E040E069E994
:1012D00071E0CF01DF91CF910C94D706CF93DF93CC
:1012E00000D000D000D0CDB7DEB7789484B582604E
:1012F00084BD84B5816084BD85B5826085BD85B5BA
:10130000816085BD80916E00816080936E00109237
:1013100081008091810082608093810080918100B2
:101320008160809381008091800081608093800043
:101330008091B10084608093B1008091B0008160A1
:101340008093B00080917A00846080937A008091CD
:101350007A00826080937A0080917A008160809325
:101360007A0080917A00806880937A001092C100A0
:1013700061E08BE00E94A40262E080E10E94A4028E
:1013800062E081E10E94A40262E082E10E94A40284
:1013900062E083E10E94A40262E084E10E94A40270
:1013A00068EC70E08BE00E94D502F8941092610323
:1013B0001092620310926303109264037894F8947D
:1013C000109255031092560310925703109258032F
:1013D000789486E693E00E9464048CE693E00E9491
:1013E000640486E693E00E9453048CE693E00E9436
:1013F000530463E08CE693E00E944E0463E086E6CB
:1014000093E00E944E0464EB71E08CE693E00E944E
:10141000880469EB71E086E693E00E948804E0911D
:101420008203F091830382E08083E0917E03F09158
:101430007F031082E0918003F091810380E180833B
:1014400010928A03E0918603F091870386E08083FF
:10145000E0918403F0918503808180618083E09135
:101460008403F0918503808188608083E091840308
:10147000F0918503808180688083E0918403F091FE
:10148000850380818F7D80838FEB91E090934C0565
:1014900080934B0510924205109241051092DE0692
:1014A0001092DD061092E0061092DF061092E2061E
:1014B0001092E1061092110468E173E08EEC91E065
:1014C0000E94DC056CE173E08EEF91E00E94DC0588
:1014D0000091DD061091DE06043611050CF040C0C7
:1014E00084E290E00E94BD18FC01D801AA0FBB1F46
:1014F000A35BBA4FED93FC93178A168A86E392E0BA
:10150000958B848B81E090E09383828382E090E0EE
:10151000958384838AE393E0918F808F168E178E54
:1015200010A211A284E690E0A0E0B0E08487958745
:10153000A687B787168217821086118683E090E00F
:1015400093A382A38FEF9FEF918380830F5F1F4F41
:101550001093DE060093DD061092E2061092E1067B
:1015600064E273E08DE592E00E94850560E273E03D
:1015700080E892E00E9485050091DF061091E00668
:101580000436110584F580E190E00E94BD18FC014D
:10159000000F111FD801AB5EB94F8D939C9383E967
:1015A00091E095838483138212821386128681E0F0
:1015B00090E0958784878FEF9FEF9183808380E110
:1015C00090E09787868762E00E94A4028091DF0600
:1015D0009091E00601969093E0068093DF061092CA
:1015E000E2061092E1068CE691E00E944A05909393
:1015F00031038093300383E491E00E944A05909385
:1016000033038093320381E291E00E944A05909374
:101610002D0380932C038DEF90E00E944A05909358
:101620002F0380932E0309EA14E080910F04909118
:101630001004DC01ED91FC910084F185E02D099509
:1016400020911104892B81F02C3381F080910F04BB
:1016500090911004DC01ED91FC910284F385E02D62
:10166000099580931104E1CF2C33D9F5C0900F0474
:10167000D0901004E2E1AE2EE4E0BE2EF12CE12C7D
:101680000E948C03F6016087718782879387D60159
:10169000ED91FC910284F385E02DC601099597FD3B
:1016A00002C00C94E0130E948C03F6014084518424
:1016B000628473846419750986099709448055808A
:1016C00066807780641575058605970500F3F092AE
:1016D000A804E092A704E114F10409F071C010928B
:1016E00011048091E1069091E206892B09F446C429
:1016F0009FE0492E94E0592E312C212C2EE3722E9E
:1017000035E6632E8091DD069091DE0628163906B7
:101710000CF4D9C285E1E82E86E0F82ED12CC12C3C
:101720008091DF069091E006C816D9060CF026C419
:10173000D701ED91FC918081918197FD3AC00E9483
:101740008C03D701ED91FC9186809780A084B184B1
:10175000681979098A099B096D32714081059105E3
:1017600040F18685978597FDDDC30E944D025C019F
:10177000D701ED91FC9184859585A816B906C9F02D
:1017800060817181B1E0AB16B10409F0C6C38AE68D
:1017900090E00E9465060E948C03D701ED91FC91B8
:1017A0006683778380879187D701ED91FC91B58619
:1017B000A486BFEFCB1ADB0AE2E0EE0EF11CB0CF3D
:1017C000F701E15FFB4F2EE32383F7013296F0939D
:1017D000A804E093A704E15FFB4F128280911204FA
:1017E000813609F44FC074F4833309F497C084330D
:1017F00009F4EBC0823309F072CF109242051092C7
:1018000041056DCF853609F4E1C1863611F1843684
:1018100009F065CFEDE4F5E090E080E041E050E0D4
:101820002091DD063091DE06821793070CF057CF2A
:10183000A191B19112962D913C91139722503109AB
:101840002230310520F41B965C934E931A97019633
:10185000E7CF2091DD063091DE06EDE4F5E090E083
:1018600080E0821793070CF071C18436910509F46A
:101870006DC1E190F190D7014D915C9157FDFCC095
:101880000196EFCF80914B0590914C050097C9F0E0
:101890001F922F939F938F931F9280E38F931F929A
:1018A0008CE38F9384EA92E09F938F931F930F931F
:1018B0000E94BD1A0E9431050FB6F894DEBF0FBE1C
:1018C000CDBF81E090E09093420580934105EDE427
:1018D000F5E090E080E02091DD063091DE06821791
:1018E0009307A4F0E5E1F6E090E080E02091DF06C8
:1018F0003091E006821793070CF0F1CEA191B191DF
:101900002FEF3FEF2D933C930196F0CFA191B19132
:101910004FEF5FEF4D935C930196DDCFF12CE12CFF
:101920008091DD069091DE06E816F9060CF0D7CE20
:10193000F701EE0FFF1FE35BFA4FC080D180D601A5
:1019400054966D917C916115710501F1FB01019037
:101950000020E9F73197AF01461B570B86E194E071
:101960000E94AF1A892B71F4F60180819181019652
:1019700049F40E948606D6018D939C93E090DD0683
:10198000F090DE06FFEFEF1AFF0ACACFF601868855
:101990009788092C000CAA08BB08C501B4010E9455
:1019A0003E089C01B501A40186E194E00E9448082C
:1019B000892B41F7D6018D919C91019619F70E94D0
:1019C0008606F60191838083D9CFF12CE12C80919A
:1019D000DF069091E006E816F9060CF080CEF701DC
:1019E000EE0FFF1FEB5EF94FC080D180D60112963B
:1019F0006D917C916115710501F1FB010190002051
:101A0000E9F73197AF01461B570B86E194E00E943E
:101A1000AF1A892B71F4F60180819181019649F406
:101A20000E948606D6018D939C93E090DF06F0908D
:101A3000E006FFEFEF1AFF0ACACFF6018480958017
:101A4000092C000CAA08BB08C501B4010E943E087D
:101A50009C01B501A40186E194E00E944808892B0D
:101A600041F7D6018D919C91019619F70E94860647
:101A7000F60191838083D9CFF701C488D588468049
:101A800057806084718420E030E048EC52E4C30168
:101A9000B2010E9499160E941818CB0164E670E00A
:101AA0000E944E18B82EA92EC301B2010E94181828
:101AB000D70192962C91929793963C919397129678
:101AC0008C91129713969C911397C114D10419F11C
:101AD0001F924EE34F93DF92CF92AF92BF927F93CC
:101AE0006F933F932F939F938F931F9282E68F93D1
:101AF0001F928CE38F938DEA92E09F938F931F93B5
:101B00000F930E94BD1A0FB6F894DEBF0FBECDBF73
:101B10000E943105E4CD1F924EE34F9357964C91AE
:101B200057974F9356964C914F93AF92BF927F9396
:101B30006F933F932F939F938F931F9282E68F9380
:101B40001F928CE38F9389EC92E0D7CFA5E1B6E0AA
:101B500090E080E02091DF063091E0068217930745
:101B60000CF041C68436910509F43DC6ED91FD9116
:101B70002081318137FD02C00196ECCF82819381B3
:101B80000097A1F01F922EE32F939F938F931F92A4
:101B90008DE68F931F928CE38F9384EA92E09F935C
:101BA0008F931F930F930E94BD1AADCF1F928EE3A8
:101BB0008F9385818F9384818F931F928DE68F936E
:101BC0001F928CE38F9385EE92E0E9CF0E94860608
:101BD0005C0190E080E02091DD063091DE06821706
:101BE00093070CF07CCD7C015FE9E50EF11C9701B9
:101BF000220F331FD901A15FBB4F6D01ED91FC9105
:101C000020813181A216B30609F05BC022813381A5
:101C10002D7F2130310509F054C0848195810197D1
:101C2000F9F4808C918C709020041092200486E14D
:101C300094E00E943D14F401608371838283938356
:101C400070922004D601ED91FC91A08DB18D8D9103
:101C50009D910D90BC91A02D828F938FA48FB58FF5
:101C6000EE0CFF1CF701E15FFB4F7F010190F0815B
:101C7000E02D84819581029701F5C08CD18C9090E4
:101C800020041092200486E194E00E941B14D601E7
:101C90006D937D938D939C93139790922004D7011D
:101CA000ED91FC91A08DB18D8D919D910D90BC9188
:101CB000A02D868F978FA0A3B1A38091DD06909170
:101CC000DE06019688CF7201B2ECEB1ABEEFFB0A7A
:101CD000D701ED91FC918081918197FD0DC08281AA
:101CE00093810297029740F4848195818130910518
:101CF00051F0029709F47FC0BFEF2B1A3B0AE2E0D4
:101D00004E0E511CFFCCA08DB18D4D915D916D910A
:101D10007C91828D938DA48DB58D481759076A07E4
:101D20007B0751F30E948C03D701ED91FC918088D1
:101D30009188A288B388AB01BC01481959096A0986
:101D40007B0984859585A685B78521E0892B8A2B1B
:101D50008B2B29F482859385892B09F420E0822F2F
:101D600090E0B0E0A0E084179507A607B70720F63B
:101D70008081918197FD1FC01F927F92008CF18D11
:101D8000E02D21812F9320812F939F938F931F927A
:101D90006F921F92BCE3BF93EAE9F1E0FF93EF93E8
:101DA0001F930F930E94BD1A0E9431050FB6F8943D
:101DB000DEBF0FBECDBFD701ED91FC91A08DB18DDF
:101DC0008D919D910D90BC91A02D828F938FA48FAA
:101DD000B58FF701C080D1800E948C03D601509648
:101DE0006D937D938D939C935397D701ED91FC91C7
:101DF0001386128681CFA08DB18D268D378D40A19F
:101E000051A16D917D918D919C910E94331681110C
:101E10006CC0D701ED91FC9182859385892B09F4E3
:101E20006BCFD701ED91FC91C080D180D7FC4EC023
:101E3000008CF18DE02D80809180A280B3801F9274
:101E40007F9220E030E048EC52E4C501B4010E94EA
:101E500099160E941818CB0164E670E00E944E1893
:101E600097FF03C09195819591099F938F93C50129
:101E7000B4010E9418189B0177FF04C02227332762
:101E8000261B370B3F932F93DF92CF921F926F92B7
:101E90001F92BCE3BF93EEEEF2E0FF93EF931F932C
:101EA0000F930E94BD1A0FB6F894DEBF0FBECDBFD0
:101EB00020E030E0A901C501B4010E94331687FF7C
:101EC00003C05DE25093AE040E943105D701ED914D
:101ED000FC91A08DB18D8D919D910D90BC91A02D07
:101EE000868F978FA0A3B1A374CF0E948C03D701D4
:101EF000ED91FC9180889188A288B388681979094E
:101F00008A099B0984849584A684B78486169706DB
:101F1000A806B90608F07DCF84CF89E690E00E943C
:101F2000650642CCA285B385109709F442CC8D9109
:101F30009C91248535858217930709F43ACC6081FA
:101F4000718118161906BCF48AE690E00E946506B5
:101F5000D701ED91FC91A285B3858D919C919587D8
:101F600084870E948C03D701ED91FC91668377836F
:101F7000808791871ECC89E690E0E8CF8091E106CA
:101F80009091E206892B09F4DDC280914003909183
:101F90004103892B09F448C010923F0310923E037D
:101FA000E0903E03F0903F03FFEFEF16F10409F0DD
:101FB00074F4B7018BE00E94D5020E9457032FEF03
:101FC000E21AF20AF0923F03E0923E03E9CF8FEF6C
:101FD00090E090933F0380933E03E0903E03F090A7
:101FE0003F03F7FC0EC0B7018BE00E94D5020E94B0
:101FF000570331E0E31AF108F0923F03E0923E0309
:10200000ECCF63E08CE693E00E944E0463E086E64A
:1020100093E00E944E046FE770E08BE00E94D502CF
:102020001092410310924003C0903A03D0903B03BA
:10203000E0903C03F0903D03A701960160911001F0
:102040007091110180911201909113010E94331639
:10205000882309F445C020E030E04FE753E4C7018E
:10206000B6010E94991620E030E0A9010E94AC1749
:102070000E9418188BE00E94D50220E030E040E872
:1020800050E460913A0370913B0380913C0390913E
:102090003D030E94991620E030E0A9010E94AC1790
:1020A0000E941818F62E60933803709339038CE65B
:1020B00093E00E944E046F2D86E693E00E944E044A
:1020C00080913A0390913B03A0913C03B0913D0372
:1020D0008093100190931101A0931201B09313010A
:1020E00080916503823008F03AC2F8948AE593E063
:1020F0000E94990360916103709162038091630370
:1021000090916403789422E030E040E050E00E9437
:10211000621830933703209336038091590382303D
:1021200008F01FC2F8948EE493E00E949903609136
:1021300055037091560380915703909158037894FA
:1021400022E030E040E050E00E9462183093350316
:1021500020933403209136033091370380910E0190
:1021600090910F012817390791F0821793070CF00F
:10217000FAC180913203909133030E942F0680911F
:1021800036039091370390930F0180930E012091B5
:1021900034033091350380910C0190910D01281783
:1021A000390791F0821793070CF0E2C180912E035A
:1021B00090912F030E942F06809134039091350354
:1021C00090930D0180930C010E948C03C090280312
:1021D000D0902903E0902A03F0902B036C197D091D
:1021E0008E099F09653671058105910508F4AAC11C
:1021F0000E948C03609328037093290380932A0321
:1022000090932B0382E10E944D02019709F0B5C122
:1022100080E090E0A0E8BFE380932403909325033F
:10222000A0932603B093270383E10E944D020197F8
:1022300009F0ACC180E090E0A0E8BFE38093200308
:1022400090932103A0932203B093230320E030E076
:1022500040E85FE360912403709125038091260399
:10226000909127030E943316882309F463C020E06D
:1022700040E264E070E086E693E00E942C0420E0F7
:1022800040E263E070E086E693E00E942C0420E0E8
:1022900040E262E070E086E693E00E942C0420E0D9
:1022A00040E261E070E086E693E00E942C0420E0CA
:1022B00040E270E060E086E693E00E942C0420E0BB
:1022C00040E264E070E08CE693E00E942C0420E0A1
:1022D00040E263E070E08CE693E00E942C0420E092
:1022E00040E262E070E08CE693E00E942C0420E083
:1022F00040E261E070E08CE693E00E942C0420E074
:1023000040E270E060E08CE693E00E942C048FEFE6
:102310009FEFDC018093080190930901A0930A01CB
:10232000B0930B018093040190930501A0930601E3
:10233000B0930701C0901C03D0901D03E0901E03D2
:10234000F0901F038091080190910901A0910A016A
:10235000B0910B01C816D906EA06FB0609F46EC057
:1023600020E030E0A9016091240370912503809161
:102370002603909127030E943316882309F45EC038
:10238000B701A601CE0101960E941607BE016F5F3C
:102390007F4F88E493E00E949E06CE0101960E9442
:1023A000960680911C0390911D03A0911E03B0918D
:1023B0001F038A309105A105B1050CF0F0C020E0A3
:1023C00040E264E070E086E693E00E942C0420E0A6
:1023D00040E363E070E086E693E00E942C0420E096
:1023E00040E362E070E086E693E00E942C0470E037
:1023F00060E088E493E00E94040121E0DC014C915C
:1024000061E070E086E693E00E942C0420E040E367
:1024100070E060E086E693E00E942C0480911C034B
:1024200090911D03A0911E03B0911F03809308019A
:1024300090930901A0930A01B0930B01C090180377
:10244000D0901903E0901A03F0901B0380910401CF
:1024500090910501A0910601B0910701C816D90617
:10246000EA06FB0609F46EC020E030E0A9016091A5
:1024700024037091250380912603909127030E94E5
:102480003316882309F45EC0B701A601CE01019678
:102490000E941607BE016F5F7F4F82E493E00E94A7
:1024A0009E06CE0101960E94960680911803909197
:1024B0001903A0911A03B0911B038A309105A1055D
:1024C000B1050CF0F1C020E040E264E070E08CE681
:1024D00093E00E942C0420E040E363E070E08CE68F
:1024E00093E00E942C0420E040E362E070E08CE680
:1024F00093E00E942C0470E060E082E493E00E948C
:10250000040121E0FC01408161E070E08CE693E091
:102510000E942C0420E040E370E060E08CE693E051
:102520000E942C048091180390911903A0911A0322
:10253000B0911B038093040190930501A0930601C1
:10254000B093070180E090E0892B09F46EC80E94E7
:102550008101882309F469C80E94000064C8F894C6
:10256000C9CDF894E4CD809130039091310305CE2C
:1025700080912C0390912D031DCE10922403109274
:10258000250310922603109227034ECE10922003AB
:1025900010922103109222031092230357CE843607
:1025A0009105A105B10514F520E040E264E070E07A
:1025B00086E693E00E942C0420E040E363E070E0B4
:1025C00086E693E00E942C0470E060E088E493E0EB
:1025D0000E94040120E0FC01408162E070E086E698
:1025E00093E00E942C0461E070E003CF883E9340AA
:1025F000A105B1054CF520E040E264E070E086E61C
:1026000093E00E942C0470E060E088E493E00E9474
:10261000040120E0DC014C9163E070E086E693E089
:102620000E942C0461E070E088E493E00E940401C1
:1026300020E0FC01408162E070E086E693E00E94C9
:102640002C0462E070E0D5CE70E060E088E493E0B6
:102650000E94040120E0FC01408164E070E086E615
:1026600093E00E942C0461E070E088E493E00E9413
:10267000040120E0DC014C9163E070E086E693E029
:102680000E942C0462E070E088E493E00E94040160
:1026900020E0FC01408162E070E086E693E00E9469
:1026A0002C0463E070E0A5CE84369105A105B10548
:1026B00014F520E040E264E070E08CE693E00E94D4
:1026C0002C0420E040E363E070E08CE693E00E949D
:1026D0002C0470E060E082E493E00E94040120E0BA
:1026E000DC014C9162E070E08CE693E00E942C04E7
:1026F00061E070E002CF883E9340A105B10584F50A
:1027000020E040E264E070E08CE693E00E942C045C
:1027100070E060E082E493E00E94040120E0DC01CC
:102720004C9163E070E08CE693E00E942C0461E041
:1027300070E082E493E00E94040120E0FC0140810B
:1027400062E070E08CE693E00E942C0462E070E0AE
:1027500082E493E00E94040121E0DC014C91D4CE9C
:1027600070E060E082E493E00E94040120E0FC015C
:10277000408164E070E08CE693E00E942C0461E00C
:1027800070E082E493E00E94040120E0DC014C91BF
:1027900063E070E08CE693E00E942C0462E070E05D
:1027A00082E493E00E94040120E0FC01408162E0A9
:1027B00070E08CE693E00E942C0463E070E0C8CFE8
:1027C0008E33910511F40C94670BD5018D935D0147
:1027D000BFEFEB1AFB0AE5E9EE16F10411F00C94D9
:1027E000400B0C94670B81E090E09093E20680939D
:1027F000E1061F928EE38F931F9283E68F931F92C1
:102800008CE38F9383E093E09F938F931F930F93B9
:102810000E94BD1A0E9431050FB6F894DEBF0FBEAC
:10282000CDBF0C946F0B82E493E00E94960688E47F
:1028300093E00C949606662777270C94B214FC015B
:1028400088279927E89421912032E9F3293010F064
:102850002E30C8F32B3241F02D3239F4689404C085
:102860000E948814820F911D219120532A30C0F3B9
:102870001EF4909581959F4F08951F93FC01992711
:102880008827BC01E89411911032E9F3193010F057
:102890001E30C8F31B3251F01D3249F4689406C053
:1028A0000E947314610F711D811D911D11911053B0
:1028B0001A30B0F33EF490958095709561957F4FF6
:1028C0008F4F9F4F1F910895BB272A3051F49923B2
:1028D00042F4BDE290958095709561957F4F8F4F42
:1028E0009F4F0C949114592F482F372F262F660F86
:1028F000771F881F991F660F771F881F991F620F08
:10290000731F841F951F660F771F881F991F0895D7
:102910007AE0979F902D879F802D910D1124089527
:10292000BB27FA01A62F6217710581059105330BAC
:1029300030FB66F0AA27660F771F881F991FAA1F12
:10294000A21710F0A21B63953850A9F7A05DAA3317
:1029500008F0A95DA19336F7B111B1931082CA01B5
:102960000C942316B0E0A0E0E8EBF4E10C946B17B4
:102970005C017B016115710519F0DB018D939C935E
:1029800085010F5F1F4FF501D0818D2F90E00E94D0
:1029900002166C01892BB9F5DD32B9F50F5F1F4FB7
:1029A000D5011196DC91C1E05801F1E0AF1AB108F0
:1029B00043E050E060E770E0C5010E940B16892BF0
:1029C00069F5680182E0C80ED11C45E050E06BE675
:1029D00070E0C6010E940B16892B21F4680197E074
:1029E000C90ED11CE114F10419F0D701CD92DC928B
:1029F00060E070E080E89FEFC111FFC060E070E030
:102A000080E89FE7FAC05801BBCFDB3229F485018B
:102A10000E5F1F4FF501D181C0E0C6CF43E050E00B
:102A200068E670E0C5010E940B16892BE9F0F801F9
:102A300010E000E020E030E0A9015F01B0ED8B2E56
:102A40008D0E89E08815C8F19C2E689491F88C2F22
:102A50008870C2FF16C0811102C00F5F1F4F3196F0
:102A6000D501DC91C92DE9CFE114F10429F00E5F05
:102A70001F4FF7011183008360E070E080EC9FE757
:102A8000BCC0882311F001501109A5E0B0E00E94FC
:102A90005A179B01AC01220F331F441F551F280DED
:102AA000311D411D511D283999E93907490799E11F
:102AB0005907A8F2C6609C2ED2CFAEEF8A1206C08C
:102AC000C3FD3CC09C2E689493F8C9CFDF7DD534FC
:102AD000A9F580818D3239F4C061DF0112968181C0
:102AE00062E070E006C0DF018B32C1F3119661E055
:102AF00070E080535D01A61AB70A8A30F8F4E0E866
:102B0000CE16ECE0DE065CF4B601660F771F660FAA
:102B1000771FC60ED71ECC0CDD1CC80ED11C5D0164
:102B2000FFEFAF1ABF0A8C9180538A30A8F1C4FF1F
:102B300003C0D194C194D1080C0D1D1DC1FF09C063
:102B4000E114F10431F081E0A81AB108D701AD9287
:102B5000BC92CA01B9010E943816C370C33009F48F
:102B600090584B015C0120E030E0A9010E9433162F
:102B7000882309F440C0CFE9D0E017FF05C01195C4
:102B800001951109C7E8D0E06E01B8E1CB1AD10870
:102B900080E2E82EF12C0FC0D501B1CFFE012591C6
:102BA0003591459154910E191F09C501B4010E9438
:102BB00099164B015C01D501C4010E151F0574F770
:102BC0002497F594E794CC16DD06A9F78A2F880F91
:102BD0008B2F881F8F3F49F020E030E0A901C5010D
:102BE000B4010E943316811106C082E290E09093F6
:102BF000E4068093E306C501B401CDB7DEB7ECE08F
:102C00000C94871791110C940617803219F0895093
:102C10008550C8F70895FB01DC014150504088F011
:102C20008D9181341CF08B350CF4805E659161349C
:102C30001CF06B350CF4605E861B611171F3990B0F
:102C40000895881BFCCFDC01FC01672F719177236D
:102C5000E1F7329704C07C916D9370836291AE1757
:102C6000BF07C8F308950E94751608F481E008951F
:102C7000E89409C097FB3EF4909580957095619516
:102C80007F4F8F4F9F4F9923A9F0F92F96E9BB27CC
:102C90009395F695879577956795B795F111F8CF48
:102CA000FAF4BB0F11F460FF1BC06F5F7F4F8F4FB3
:102CB0009F4F16C0882311F096E911C0772321F0A9
:102CC0009EE8872F762F05C0662371F096E8862F41
:102CD00070E060E02AF09A95660F771F881FDAF798
:102CE000880F9695879597F90895990F0008550FC5
:102CF000AA0BE0E8FEEF16161706E807F907C0F082
:102D000012161306E407F50798F0621B730B840B89
:102D1000950B39F40A2661F0232B242B252B21F463
:102D200008950A2609F4A140A6958FEF811D811D03
:102D300008950E94AC160C9420170E94121738F0C8
:102D40000E94191720F0952311F00C9409170C9488
:102D50000F1711240C9454170E94311770F3959F8C
:102D6000C1F3950F50E0551F629FF001729FBB2782
:102D7000F00DB11D639FAA27F00DB11DAA1F649F1E
:102D80006627B00DA11D661F829F2227B00DA11DD1
:102D9000621F739FB00DA11D621F839FA00D611D57
:102DA000221F749F3327A00D611D231F849F600D78
:102DB000211D822F762F6A2F11249F5750409AF0A1
:102DC000F1F088234AF0EE0FFF1FBB1F661F771F2D
:102DD000881F91505040A9F79E3F510580F00C94F8
:102DE00009170C9454175F3FE4F3983ED4F386958B
:102DF00077956795B795F795E7959F5FC1F7FE2B98
:102E0000880F911D9695879597F90895992788279A
:102E1000089597F99F6780E870E060E008959FEF5C
:102E200080EC089500240A94161617061806090661
:102E3000089500240A941216130614060506089530
:102E4000092E0394000C11F4882352F0BB0F40F4B8
:102E5000BF2B11F460FF04C06F5F7F4F8F4F9F4FF8
:102E6000089557FD9058440F551F59F05F3F71F07A
:102E70004795880F97FB991F61F09F3F79F08795E1
:102E80000895121613061406551FF2CF4695F1DF6A
:102E900008C0161617061806991FF1CF86957105FA
:102EA000610508940895E894BB2766277727CB012E
:102EB00097F908950E949C17A59F900DB49F900DBF
:102EC000A49F800D911D112408952F923F924F923F
:102ED0005F926F927F928F929F92AF92BF92CF92AA
:102EE000DF92EF92FF920F931F93CF93DF93CDB7B3
:102EF000DEB7CA1BDB0B0FB6F894DEBF0FBECDBF2B
:102F000009942A88398848885F846E847D848C84FB
:102F10009B84AA84B984C884DF80EE80FD800C8104
:102F20001B81AA81B981CE0FD11D0FB6F894DEBFE7
:102F30000FBECDBFED010895A29FB001B39FC001A8
:102F4000A39F700D811D1124911DB29F700D811DD5
:102F50001124911D08955058BB27AA270E94C3171A
:102F60000C9420170E94121738F00E94191720F0B5
:102F700039F49F3F19F426F40C940F170EF4E095E2
:102F8000E7FB0C940917E92F0E94311758F3BA1781
:102F9000620773078407950720F079F4A6F50C946F
:102FA00053170EF4E0950B2EBA2FA02D0B01B9018B
:102FB00090010C01CA01A0011124FF27591B99F0AF
:102FC000593F50F4503E68F11A16F040A22F232FBB
:102FD000342F4427585FF3CF469537952795A7950B
:102FE000F0405395C9F77EF41F16BA0B620B730BB2
:102FF000840BBAF09150A1F0FF0FBB1F661F771F23
:10300000881FC2F70EC0BA0F621F731F841F48F4D7
:10301000879577956795B795F7959E3F08F0B0CF60
:103020009395880F08F09927EE0F97958795089547
:103030000E941F186894B1110C94541708950E94AF
:10304000391788F09F5798F0B92F9927B751B0F0EA
:10305000E1F0660F771F881F991F1AF0BA95C9F71C
:1030600014C0B13091F00E945317B1E008950C9450
:103070005317672F782F8827B85F39F0B93FCCF303
:10308000869577956795B395D9F73EF49095809599
:10309000709561957F4F8F4F9F4F089597FB072E37
:1030A00016F4009407D077FD09D00E94811807FC20
:1030B00005D03EF4909581959F4F08957095619548
:1030C0007F4F0895052E97FB1EF400940E947918F7
:1030D00057FD07D00E94951807FC03D04EF40C94BE
:1030E000791850954095309521953F4F4F4F5F4F40
:1030F000089590958095709561957F4F8F4F9F4F64
:103100000895AA1BBB1B51E107C0AA1FBB1FA6172E
:10311000B70710F0A61BB70B881F991F5A95A9F780
:1031200080959095BC01CD010895A1E21A2EAA1BAD
:10313000BB1BFD010DC0AA1FBB1FEE1FFF1FA21767
:10314000B307E407F50720F0A21BB30BE40BF50B64
:10315000661F771F881F991F1A9469F760957095ED
:10316000809590959B01AC01BD01CF010895EE0FB4
:10317000FF1F0590F491E02D09940F931F93CF93B7
:10318000DF938230910510F482E090E0E091E70651
:10319000F091E80630E020E0B0E0A0E0309799F44C
:1031A0002115310509F44AC0281B390B243031059B
:1031B000D8F58A819B816115710589F1FB019383A3
:1031C0008283FE0111C04081518102811381481721
:1031D0005907E0F04817590799F4109761F01296D3
:1031E0000C93129713961C933296CF01DF91CF91D7
:1031F0001F910F9108950093E7061093E806F4CF0E
:103200002115310551F04217530738F0A901DB01B0
:103210009A01BD01DF01F801C1CFEF01F9CF909311
:10322000E8068093E706CDCFFE01E20FF31F8193FE
:1032300091932250310939832883D7CF2091E50615
:103240003091E606232B41F42091160130911701AD
:103250003093E6062093E506209114013091150184
:103260002115310541F42DB73EB740911801509119
:103270001901241B350BE091E506F091E606E217F3
:10328000F307A0F42E1B3F0B2817390778F0AC0189
:103290004E5F5F4F2417350748F04E0F5F1F509366
:1032A000E6064093E506819391939FCFF0E0E0E03E
:1032B0009CCFCF93DF930097E9F0FC013297138204
:1032C0001282A091E706B091E806ED0130E020E01F
:1032D0001097A1F420813181820F931F2091E50680
:1032E0003091E6062817390709F061C0F093E60629
:1032F000E093E506DF91CF910895EA01CE17DF074D
:10330000E8F54A815B819E0141155105B1F7E9015C
:10331000FB83EA8349915991C40FD51FEC17FD0730
:1033200061F4808191810296840F951FE901998350
:103330008883828193819B838A83F0E0E0E0129608
:103340008D919C9113970097B9F52D913C91119710
:10335000CD010296820F931F2091E5063091E6067B
:103360002817390739F6309751F51092E806109270
:10337000E706B093E606A093E506BCCFD383C283ED
:1033800040815181840F951FC817D90761F44E5FA2
:103390005F4F88819981480F591F518340838A81EB
:1033A0009B81938382832115310509F0B0CFF0937F
:1033B000E806E093E7069ECFFD01DC01C0CF138253
:1033C0001282D7CFB0E0A0E0E8EEF9E10C946717E5
:1033D0008C01009751F4CB010E94BD188C01C801EB
:1033E000CDB7DEB7E0E10C948317FC01E60FF71FC1
:1033F0009C0122503109E217F30708F49DC0D9015E
:10340000CD91DC911197C617D70798F0C530D1053B
:1034100030F3CE0104978617970708F3C61BD70B26
:103420002297C193D1936D937C93CF010E94591938
:10343000D6CF5B01AC1ABD0A4C018C0E9D1EA0912B
:10344000E706B091E806512C412CF12CE12C1097A5
:1034500031F58091E5069091E6068815990509F009
:103460005CC04616570608F058C080911401909130
:103470001501009741F48DB79EB740911801509106
:103480001901841B950BE817F90708F055C0F09354
:10349000E606E093E506F90171836083A0CF8D9184
:1034A0009C91119712966C90129713967C9013979B
:1034B000A815B90559F56C0142E0C40ED11CCA1417
:1034C000DB0420F1AC014A195B09DA011296159769
:1034D00080F06282738251834083D9016D937C9323
:1034E000E114F10471F0D7011396FC93EE93129757
:1034F00076CF22968C0F9D1FF90191838083F30173
:10350000EFCFF093E806E093E70669CF4816590637
:1035100008F42C017D01D3019ACFCB010E94BD1884
:103520007C01009749F0AE01B8010E949F1AC801C2
:103530000E945919870153CF10E000E050CFFB01E2
:10354000DC0102C001900D9241505040D8F708951F
:10355000FB01DC0101900D920020E1F70895FB01D1
:10356000DC014150504030F08D910190801919F4E8
:103570000020B9F7881B990B0895AEE0B0E0E3ECAA
:10358000FAE10C9473170D891E8986E08C831A83E7
:1035900009838FEF9FE79E838D83AE01475E5F4F68
:1035A0006F89788DCE0101960E94E01A2F813885AF
:1035B000020F131FF80110822E96E4E00C948F176F
:1035C000ABE0B0E0E6EEFAE10C9465177C013B015C
:1035D0008A01FC0117821682838181FFC8C1CE0156
:1035E00001965C01F7019381F30193FD859193FFAF
:1035F00081913F01882309F453C1853239F493FD49
:10360000859193FF81913F01853229F4B70190E0C4
:103610000E94D01CE7CF912C212C312CFFE1F31517
:1036200038F08B3211F190F4803209F1833229F1B4
:1036300037FC3CC020ED280F2A3050F536FE20C064
:103640008AE0989E200D1124922E06C08D3291F0B2
:10365000803371F7689430F8F30193FD859193FFFF
:1036600081913F018111DACF21C0689431F86894CB
:1036700032F8F2CF689433F8EFCF689434F8ECCF97
:10368000EAE02E9E200D1124222E689435F8E4CF16
:103690008E3229F436FC04C1689436F8DDCF8C36BE
:1036A00019F4689437F8D8CF8836B1F2982F9F7DF7
:1036B00095549330E0F08336A1F18337C1F183351F
:1036C00009F063C02801F2E04F0E511CF801C080E0
:1036D000D180692D70E036FC02C06FEF7FEFC6012C
:1036E0000E94BA1C4C01689437F882010AC00C5F32
:1036F0001F4FFFE3F98388248394912C6501E8949C
:1037000037F833FE2DC0522C8114910471F55520E9
:1037100009F468CFB70180E290E00E94D01C5A946F
:10372000F6CFF801808189830E5F1F4FE4CF280117
:10373000F2E04F0E511CF801C080D180692D70E07D
:1037400036FC02C06FEF7FEFC6010E94C51C4C0122
:103750008201D5CFB70180E290E00E94D01C2A946C
:103760002814190409F0B0F7CECFF60137FC859183
:1037700037FE81916F01B70190E00E94D01C51107B
:103780005A94F1E08F1A9108BFCF843619F0893628
:1037900009F077C0F80137FE6BC0608171818281CA
:1037A00093810C5F1F4FF32DFF763F2E97FF09C0CB
:1037B00090958095709561957F4F8F4F9F4F68943E
:1037C00037F82AE030E0A5010E94001DC82ECA1873
:1037D0008C2C432C36FE0CC0E89440F8C91440F4FD
:1037E00034FE05C032FC03C0F32DFE7E4F2E892C23
:1037F00044FE95C0FE01EC0DF11D8081803309F07F
:1038000087C0242D297E422E842D8870582E43FC9B
:1038100095C040FE8FC09C2C821418F42C0C922C66
:10382000981844FE91C0B70180E390E00E94D01C3C
:1038300042FE09C088E790E041FE02C088E590E0C2
:10384000B7010E94D01CC91408F48AC0CA94D12CB4
:103850009FEFC91AD90ACA0CDB1CF60182916F01CD
:10386000B70190E00E94D01CAC14BD04B1F74FCF5B
:1038700060817181072E000C880B990B0E5F1F4F22
:1038800092CFD32CE894D4F82AE030E0853739F190
:10389000232D297FD22E8F3601F148F48835A9F0E7
:1038A000F701868197812B96E2E10C94811780378E
:1038B00049F08837A9F7D4FE02C06894D2F820E115
:1038C00030E00DC06894D4F8F6CF34FE03C0822FE8
:1038D0008660D82E20E132E002C028E030E0F80116
:1038E000D7FE0FC060817181828193810C5F1F4F71
:1038F000A5010E94001DC82ECA183D2CE89437F877
:1039000067CF6081718190E080E00E5F1F4FF0CF44
:1039100042FC02C0839478CF8394839475CF842D26
:10392000867809F471CFF6CFB70180E290E00E946B
:10393000D01C83948214C0F3512C73CF522C58188E
:10394000821408F46ECFF8CF842D867809F47BCFEB
:103950008BE241FE80E247FC8DE2B70190E071CF3F
:10396000B70180E390E00E94D01C9A946CCF8FEF57
:103970009FEF99CFFC010590615070400110D8F77E
:10398000809590958E0F9F1F0895FC0161507040A7
:1039900001900110D8F7809590958E0F9F1F089584
:1039A0000F931F93CF93DF93182F092FEB018B8178
:1039B00081FD09C01FEF0FEF812F902FDF91CF9175
:1039C0001F910F91089582FF14C02E813F818C8139
:1039D0009D81281739073CF4E881F981CF010196D0
:1039E0009983888310838E819F8101969F838E8324
:1039F000E3CFE885F985812F0995892BA1F3DACFEB
:103A0000FA01AA27283051F1203181F1E8946F930F
:103A10006E7F6E5F7F4F8F4F9F4FAF4FB1E03ED0B5
:103A2000B4E03CD0670F781F891F9A1FA11D680F53
:103A3000791F8A1F911DA11D6A0F711D811D911D86
:103A4000A11D20D009F468943F912AE0269F1124FB
:103A50003019305D3193DEF6CF010895462F47705F
:103A6000405D4193B3E00FD0C9F7F6CF462F4F70BA
:103A7000405D4A3318F0495D31FD4052419302D018
:103A8000A9F7EACFB4E0A6959795879577956795BE
:103A9000BA95C9F700976105710508959B01AC01BE
:103AA0000A2E06945795479537952795BA95C9F7E5
:103AB000620F731F841F951FA01D089510E0C9EDAC
:103AC000D0E004C0FE010E94B7182196CA3DD1077C
:063AD000C9F7F894FFCFD6
:103AD60098039803FFFFFFFFFFFFFFFFFFFFFFFFB6
:103AE6000000803F0000E90680004177427F434E98
:103AF600447E454F4647475E483749304A3C4C0E60
:103B06004E764F7E50675205535B540F553E5927EC
:103B16005B4E5D785F086177621F630D643D654F9C
:103B26006647675E681769106A3C6C0E6E156F7E95
:103B360070677205735B740F751C79272D01200061
:103B4600307E3130326D33793433355B365F3770E2
:103B5600387F397B300000000000B70117014401AF
:103B6600040275015301670120002563256325338F
:103B76002E336925692563002563256325332E3396
:103B860069256300434F52450072656164790043BD
:103B96004F5245204144462050414E454C007369E2
:103BA6006D2F636F636B706974322F726164696F16
:103BB600732F6163747561746F72732F61646631FC
:103BC6005F6672657175656E63795F687A007369A1
:103BD6006D2F636F636B706974322F726164696FE6
:103BE600732F6163747561746F72732F61646631CC
:103BF6005F7374616E6462795F6672657175656E16
:103C060063795F687A006C616D696E61722F423705
:103C160033382F656C6563747269632F70616E65E6
:103C26006C5F6272696768746E657373006C616D50
:103C3600696E61722F423733382F746F67676C6510
:103C46005F7377697463682F6F66665F6F6E3100A6
:103C56006C616D696E61722F423733382F746F67EE
:103C6600676C655F7377697463682F6164665F610B
:103C76006E7431002563256325732563002563254E
:103C86006325312E316925322E3269253035692E6C
:103C96002530326925732563002563256325312E7A
:103CA600316925322E3269253035692E2530326943
:103CB6002553256300256325632553256300256366
:103CC600256325332E3369253037692E2530326931
:0A3CD60025630025632563256300C4
:00000001FF
